:100000000C9444000C9461000C9461000C94610009
:100010000C94CC030C9477030C9461000C94610055
:100020000C9461000C9461000C9461000C946100CC
:100030000C9461000C9461000C9461000C946100BC
:100040000C9461000C9461000C9461000C946100AC
:100050000C9461000C9461000C9461000C9461009C
:100060000C9461000C946100910593059605980528
:100070009B059D05A005A205A505A705AA05AC053C
:10008000AF05B105B405B60511241FBECFEFD8E00A
:10009000DEBFCDBF14E0A0E0B1E0E8EDF1E102C0C9
:1000A00005900D92A233B107D9F720E1A2E3B4E0A5
:1000B00001C01D92AB38B207E1F70E94EC070C9427
:1000C000EA080C94000080E680937C0087E080932F
:1000D0007A0080917A00806880937A0080917A001B
:1000E000806480937A0080917A0086FDFCCF8091B5
:1000F0007900089590917C00892B80937C008091F9
:100100007A00806480937A0080917A0086FDFCCF2B
:10011000809179000895613059F138F0623009F426
:100120004FC0633009F474C00895209132043091B7
:1001300033042130310569F020F02230310591F08F
:10014000089582958F7080937F1081E080935F0A7D
:100150007FC082958F708F5F8093801081E0809345
:10016000600A76C08093891091E09093690A23C059
:1001700020913204309133042130310561F020F0B8
:1001800022303105A1F0089582958F7080938110FF
:100190006093610A5DC0982F96959093821060934A
:1001A000620A82958F708F5F0E94640551C08093B0
:1001B0008A1060936A0A82958F708F5F0C94640531
:1001C00020913204309133042130310571F020F058
:1001D00022303105A1F008958093831081E080934F
:1001E000630A82E090E00C9453059CE4899F90019F
:1001F00011243093861091E09093660ADCCF982FFB
:10020000969596959093841091E09093640AD3CF3D
:1002100020913204309133042130310569F020F00F
:100220002230310579F0089582958F708093851082
:1002300091E09093650AC1CF8093871091E09093ED
:10024000670ABACF8093881091E09093680AB3CF81
:100250000C941106EF92FF921F93CF93DF93C0E0AF
:10026000D0E08C2F0E947A00182FCE01855A954F2E
:100270007C01FC018081181731F06C2F812F0E94C6
:100280008B00F70110832196C430D10551F7DF911F
:10029000CF911F91FF90EF90089580917C10811174
:1002A0000AC030917D1020917B1081E090E03213E4
:1002B00004C080E0089582E090E00895CF92DF923C
:1002C000EF92FF92CF93C82F0E94D5076B017C015C
:1002D0000E944D01EFE6F0E191838083C283138297
:1002E000C482D582E682F78211861086CF91FF9074
:1002F000EF90DF90CF9008950F931F93CF93DF93EC
:10030000C82F0E944D0120916F1030917010281756
:10031000390749F5D0917110DC1325C00E94D5072B
:10032000D0937110209172102F5F20937210009162
:1003300073101091741020917510309176109B01FC
:10034000201B310B3093781020937710609373103B
:10035000709374108093751090937610DF91CF9105
:100360001F910F9108958C2FDF91CF911F910F91C5
:100370000C945E0190917110981305C090917210C9
:1003800081E0961708F480E00895882329F08330EF
:1003900029F410927C1002C010927B100E944D0133
:1003A0009093330480933204089580E090E02CE031
:1003B00031E0FC01E15AF54F40814423C1F05091F6
:1003C0003604FC01E158FF4E4081FC01259FE00D01
:1003D000F11D1124E55AFB4F408340913604FC0186
:1003E000249FE00DF11D1124E159F54F3083019652
:1003F0008C309105F1F6809136048F5F809336043E
:100400008091360487FD109236048091370487FD71
:1004100005C0809137048F5F8093370408958091E1
:10042000360480933904109237040895809136047D
:1004300080933804809138042091370490E0821B27
:10044000910997FD805880933904089580E090E0E9
:100450002CE0FC01E15AF54F308131111AC0309186
:100460003604FC01239FE00DF11D1124E159F54FE5
:100470003081332371F030913604FC01239FE00D6D
:10048000F11D1124E55AFB4F3081FC01E158FF4E6C
:10049000308301968C309105E1F6089580E096E076
:1004A000EBE5F4E0DF019C011D9221503040E1F7C3
:1004B000EFE6FAE0DF019C011D9221503040E1F7A8
:1004C00008951F93CF93DF93CDB7DEB72A970FB66A
:1004D000F894DEBF0FBECDBF182F8AE0EFE6F0E143
:1004E000DE01119601900D928A95E1F7812F0E940D
:1004F0007C01113069F138F0123009F452C0133028
:1005000009F48BC0E4C062E080E00E94BA01882355
:10051000D9F0809177109091781080349F4178F4D1
:1005200080917710909178108436910540F09091E9
:100530007D1081E0911180E080937D1003C081E007
:1005400080937B1080E012C081E080937B10BFC05D
:1005500062E081E00E94BA01882359F0809177100F
:10056000909178108436910520F481E00E945E011C
:10057000AEC08091320490913304019719F40E9427
:10058000D305A5C080917A10882329F010927A10A3
:100590000E94AF079CC081E080937A100E94A5075B
:1005A00096C062E082E00E94BA01882389F08091BF
:1005B0007710909178108436910550F48AE0FE010E
:1005C0003196AFE6B0E101900D928A95E1F77FC0D8
:1005D0008091320490913304019789F480917710CF
:1005E0009091781080389E4318F48091721004C066
:1005F00082E00E945E0181E00E94D70568C062E04F
:1006000082E00E94BA01882309F461C080917710CA
:10061000909178100E94E1055AC062E083E00E9448
:10062000BA01882349F08091771090917810843630
:10063000910510F483E09ACF80916D0A882321F010
:1006400081E080937C1043C0809132049091330408
:100650000197C9F48091340490913504813091055B
:1006600079F038F0029799F510923504109234041D
:100670002EC082E090E0909335048093340427C02C
:100680000E944E0224C080917910811111C0809186
:10069000340490913504892B11F40E944E0281E0BC
:1006A00090E090933504809334040E940F0208C0B8
:1006B00082E090E090933504809334040E94160207
:1006C0009091791081E0911180E0809379100E94DF
:1006D0004D0190933304809332042A960FB6F89418
:1006E000DEBF0FBECDBFDF91CF911F9108951F9246
:1006F0000F920FB60F921124FF920F931F932F9317
:100700003F934F935F936F937F938F939F93AF9399
:10071000BF93CF93DF93EF93FF93C0E0D0E0FF242C
:10072000F39489B190E09E012B5F3F4F02C09595F5
:1007300087952A95E2F78E010559154FF80180FD3E
:1007400009C08081811103C08C2F0E946102F801D1
:10075000F08208C08081882319F08C2F0E94C50187
:10076000F80110822196C330D105D9F6FF91EF919F
:10077000DF91CF91BF91AF919F918F917F916F91B9
:100780005F914F913F912F911F910F91FF900F908B
:100790000FBE0F901F9018951F920F920FB60F92D9
:1007A00011242F933F934F935F936F937F938F9376
:1007B0009F93AF93BF93EF93FF93349908C08091B9
:1007C0007A10811102C00E9495070E940307359993
:1007D0000BC080916E0A811103C083E00E94610208
:1007E00081E080936E0A09C080916E0A882319F017
:1007F00083E00E94C50110926E0AFF91EF91BF91B4
:10080000AF919F918F917F916F915F914F913F91A8
:100810002F910F900FBE0F901F901895EFE7F0E10A
:1008200080E180838183128213828FE7848380E258
:100830008583168286E2878380E880871186128608
:1008400013861092390410923804109237041092D3
:10085000360410923504109234041092330410922E
:100860003204EFE6F0E11182108285E0828310927B
:100870005B0A10925C0A10925D0A10925E0A109256
:100880006B0A10926C0A10926D0A10926E0A8CE03C
:10089000EFE5FAE0DF011D928A95E9F780E096E046
:1008A000EBE5F4E0DF019C011D9221503040E1F7BF
:1008B000EFE6FAE0DF019C011D9221503040E1F7A4
:1008C000089520913A0430913B04F901E95BFB4F14
:1008D0008081882399F08091460490E082179307E5
:1008E00021F480914504811126C09BB1220F331F52
:1008F000F901E75FFC4F8081892B12C0809146048B
:1009000090E082179307B9F420914504222399F0CF
:100910002BB1880F991FFC01E75FFC4F8081822B70
:100920008BB9E0913A04F0913B04EE0FFF1FE75FB3
:10093000FC4F81818AB9089580913A0490913B04DB
:100940002091400430E0821793079CF42BB1880F6C
:10095000991FFC01E75FFC4F8081822B8BB9E091EE
:100960003A04F0913B04EE0FFF1FE75FFC4F8181DB
:100970008AB90895809186106CE00E94F107392FA2
:1009800080913A0490913B04232F269530FD04C0BA
:1009900030E0275F3F4F09C030E0A901475F5F4F5C
:1009A0008417950729F0265F3F4F8217930799F424
:1009B0002BB1880F991FFC01E75FFC4F8081822BD0
:1009C0008BB9E0913A04F0913B04EE0FFF1FE75F13
:1009D000FC4F81818AB9089580913A0490913B043B
:1009E00088309105FCF42091831030E0082E02C07D
:1009F000359527950A94E2F720FF16C02BB1880F92
:100A0000991FFC01E75FFC4F8081822B8BB9E0913D
:100A10003A04F0913B04EE0FFF1FE75FFC4F81812A
:100A20008AB908950C94BA04089520913A0430913B
:100A30003B042830310504F5809186106CE00E945B
:100A4000F107982F87E0891B90E028173907B1F448
:100A50009BB1220F331FF901E75FFC4F8081892B87
:100A60008BB9E0913A04F0913B04EE0FFF1FE75F72
:100A7000FC4F81818AB908950C94BA0408950E94AC
:100A8000610480913A0490913B0401968031910574
:100A90002CF490933B0480933A04089510923B0405
:100AA00010923A0408959093420480934104892B54
:100AB00051F00E94D50760933C0470933D048093ED
:100AC0003E0490933F04089521E030E030934204C7
:100AD00020934104809340040E94D50760933C0416
:100AE00070933D0480933E0490933F04089583E007
:100AF0008AB981EE8BB98FE284B917B880E288B9E0
:100B000008951AB88BB1807E8BB9E09143048E2F83
:100B100090E08031910568F5FC01EC5CFF4F0C948E
:100B20003008599A01C0589A83E022C05A9A01C0ED
:100B3000589A85E01DC05A9A01C0599A86E018C09B
:100B40005B9A01C0599A8AE013C05B9A01C05A9A15
:100B50008CE00EC05C9A01C05A9A84E109C05C9A8C
:100B600001C05B9A88E104C05C9A01C0589A81E197
:100B70008AB9809143048F5F803118F480934304D5
:100B800008951092430408950E94770581E08093B0
:100B9000470408950E9481058FE99FE00197F1F7CE
:100BA00000C00000089580E180934604089590916C
:100BB0000201981729F08093020181E080930101DE
:100BC000089590930401809303010895CF93DF93D8
:100BD0008091731090917410A0917510B09176105F
:100BE0000E94CC08809182108823C1F0C0E0D0E040
:100BF0008091801090E0C817D90784F40E94C7083C
:100C000080918210981740F4FE01E95BFB4F9081C0
:100C100081E0911180E080832196EACFDF91CF912E
:100C20000895CF93E091801080917F10F0E031978C
:100C300094E0EE0FFF1F9A95E1F7E80FF11DEE0F1C
:100C4000FF1FE75FFE4FC08180918110609180108F
:100C50000E94F107892F90E020E030E0E1E0F0E031
:100C60004091801050E024173507A4F4AF01082EFE
:100C700001C0440F0A94EAF74C23D901A95BBB4F8A
:100C80004C9301966091801070E00E94FD072F5FE9
:100C90003F4FE6CFCF910C94E605CF92DF92EF92D3
:100CA000FF92CF93DF938091440480930001E09101
:100CB0008510809146042091871040E1E49FF00167
:100CC0001124E80FF11DE75DFC4F808190E008974B
:100CD000289FF001299FF00D11246F01FF0FEE08EE
:100CE000FF08C09188100E94C708892F990F990B9F
:100CF0009C012F573109C29FC001C39F900D112441
:100D000097FD0F9644E0959587954A95E1F72091D8
:100D10008410B701A601480F511D611D711DDB0133
:100D2000CA0177FF03C080E090E0DC01FC01EE0F18
:100D3000EF2FEE1FFF0BF195E20FF11D6F0157E052
:100D4000C522DD2420E030E0C8E0D0E0E090831050
:100D5000F12CC9018C0D9D1DBE010E94FD0702C032
:100D6000F594E7948A95E2F7E0FE03C0E20FF31FE3
:100D700018C0E0908310F12CC601821B930BBE01BA
:100D80000E94FD0702C0F594E7948A95E2F7E0FE21
:100D900003C0E21BF30B05C02F5F3F4F2830310526
:100DA000A9F6AF01F7FF02C0495F5F4F487F80910E
:100DB000861090E08497BA0123E0769567952A958E
:100DC000E1F7ACE0A69F9001A79F300D1124820FA0
:100DD000931FE41BF50BE75DFB4F2081820F911DF4
:100DE0008837910514F087E705C097FF03C010927C
:100DF000440402C080934404DF91CF91FF90EF90B0
:100E0000DF90CF9008959091010180910201981791
:100E100030F4809101018F5F809301010895F8946F
:100E200081E080930101209146048091801030E0A0
:100E300090E001972817390734F4809146048F5FBA
:100E40008093460404C0109246040E9411060E943A
:100E50002A018091340490913504029731F08091F9
:100E6000340490913504019751F40E942602809138
:100E7000340490913504019711F40E94D501E0915A
:100E80004604F0E0E95BFB4F808181110E944D0632
:100E90000E9453078CE0EFE5FAE0DF011D928A958E
:100EA000E9F77894089516BC85B5856085BDE09115
:100EB0004604F0E0E95BFB4F808181112A9881E0D4
:100EC00080934504089580918A10882329F1209108
:100ED000030130910401A0918A10B0E00E9436080D
:100EE0002EEF31E040E050E00E941108809146046E
:100EF00080FD0BC08091030190910401280F391FE0
:100F00003093890020938800089580910301909187
:100F10000401821B930B04C0809103019091040192
:100F20009093890080938800089510928500109214
:100F30008400E1E8F0E08081846080838FEF9FEFA0
:100F400090938900809388000895109285001092F4
:100F50008400E1E8F0E08081846080830895E1E826
:100F6000F0E080818B7F8083109285001092840056
:100F7000089514BCEEE6F0E08081816080830E94D9
:100F8000AF07E1E8F0E08081886080830E9463071A
:100F9000EFE6F0E08081826080831092B000E0E7AD
:100FA000F0E08081816080830895F89480915704F7
:100FB00090915804A0915904B0915A042091B20024
:100FC0007894BA2FA92F982F8827BC01CD01620FE2
:100FD000711D811D911D08950E94C4050E94CA05BE
:100FE000FDCF991B79E004C0991F961708F0961B56
:100FF000881F7A95C9F78095089597FB072E16F4F8
:10100000009407D077FD09D00E94450807FC05D061
:101010003EF4909581959F4F0895709561957F4F0F
:101020000895052E97FB1EF400940E94280857FD92
:1010300007D00E94590807FC03D04EF40C942808EE
:1010400050954095309521953F4F4F4F5F4F0895F4
:1010500090958095709561957F4F8F4F9F4F089524
:10106000EE0FFF1F0590F491E02D0994A29FB001AF
:10107000B39FC001A39F700D811D1124911DB29FCC
:10108000700D811D1124911D0895AA1BBB1B51E1F8
:1010900007C0AA1FBB1FA617B70710F0A61BB70BE8
:1010A000881F991F5A95A9F780959095BC01CD018D
:1010B0000895A1E21A2EAA1BBB1BFD010DC0AA1F99
:1010C000BB1FEE1FFF1FA217B307E407F50720F0B1
:1010D000A21BB30BE40BF50B661F771F881F991F2C
:1010E0001A9469F760957095809590959B01AC0175
:1010F000BD01CF0108958F929F92AF92BF92CF9280
:10110000DF92EF92FF92CF93DF93EC0168817981B8
:101110008A819B81611571058105910521F464E245
:1011200079ED8BE597E02DE133EF41E050E00E944F
:10113000110849015A019B01AC01A7EAB1E40E94E0
:10114000D7086B017C01ACEEB4EFA50194010E94BD
:10115000E508DC01CB018C0D9D1DAE1DBF1DB7FF49
:1011600003C00197A109B04888839983AA83BB83F0
:101170009F77DF91CF91FF90EF90DF90CF90BF905E
:10118000AF909F908F9008950E947B08089585E00E
:1011900091E00E947B080895A0E0B0E080930501F3
:1011A00090930601A0930701B093080108950E944F
:1011B0003608A59F900DB49F900DA49F800D911DA2
:1011C00011240895B7FF0C94D7080E94D708821BFA
:0811D000930B0895F894FFCF82
:1011D800FF0101401F0100000001000100010001A2
:1011E80000010001000100010001000100010001EF
:1011F80000010001000100010001000300030003D9
:1012080000030003000300030003000300030003BE
:1012180000030003000300030001000500070007A6
:10122800000700070007000700070007000700077E
:10123800000700070007000700010005000D000F68
:10124800000F000F000F000F000F000F000F000F1E
:10125800000F000F000F000F00010009000D001D16
:10126800001F001F001F001F001F001F001F001F7E
:10127800001F001F001F001F000100090015002D9E
:10128800003D003F003F003F003F003F003F003F60
:10129800003F003F003F003F000100110029002DE2
:1012A800005D007D007F007F007F007F007F007F62
:1012B800007F007F007F007F00010011002900559A
:1012C80000AD00DD00FD00FF00FF00FF00FF00FF94
:1012D80000FF00FF00FF00FF00010021004900A9F6
:1012E80000AD006D01BD01FD01FF01FF01FF01FF20
:1012F80001FF01FF01FF01FF010100210091002909
:10130800015501AD01DD02BD03FD03FF03FF03FF2E
:1013180003FF03FF03FF03FF0301004100910029BE
:1013280001A902AD02AD05DD067D07FD07FF07FF38
:1013380007FF07FF07FF07FF0701004100110149E9
:1013480002A9045505AD066D0BDD0D7D0FFD0FFFE0
:101358000FFF0FFF0FFF0FFF0F0100810021029108
:10136800042909A90AAD0AAD0DDD16BD1BFD1EFD38
:101378001FFF1FFF1FFF1FFF1F0100810021029198
:10138800082909A9145515AD16AD2DDD2EBD3BFD57
:101398003EFD3FFF3FFF3FFF3F0100010121049158
:1013A8000849122925A92AAD2AAD356D5BDD6EBD28
:1013B80077FD7DFD7FFF7FFF7F010001014108115F
:1013C8001191242929A9525555AD5AADADDDB6DD87
:1013D800DD7DEFFDFDFDFFFFFF02030103040501B5
:1013E8000504060206080A020A080C040C10140474
:1013F8001410180818101101110001020304050641
:101408000708090A0B0C0D0E0F0F0E0D0C0B0A091D
:1014180008070605040302010000020406080A0C76
:101428000E0F0E0C0A080604020F0E0C0A0806041A
:101438000200020406080A0C0E00010204070B0D44
:101448000E0F0E0D0B070402010F0E0D0B07040201
:101458000100010204070B0D0E0703010001030739
:101468000B0E0F0E0B0908090D080C0E0F0E0C08B9
:10147800040100010408070802000000010102023B
:101488000303040506080A0C0F0F0F0F0E0E0D0DAF
:101498000C0C0B0A090705030000030507090A0BD2
:1014A8000C0C0D0D0E0E0F0F0F0F0C0A080605047D
:1014B800030302020101000000000F000F000F00EB
:1014C8000F000F000F000F000F0F000F000F000F8D
:1014D800000F000F000F000F00070A0602080E0792
:1014E80000080F040B05090D030805090D0701087D
:1014F8000F07000B040A06020C0002040506070980
:021508000B00D6
:00000001FF
