:100000000C94ED1D0C940A1E0C940A1E0C940A1EEE
:100010000C948F2C0C943A2C0C940A1E0C940A1EEF
:100020000C940A1E0C946E350C940A1E0C944435E4
:100030000C940A1E0C940A1E0C940A1E0C940A1EA0
:100040000C943C350C940A1E0C940A1E0C940A1E47
:100050000C940A1E0C940A1E0C940A1E0C940A1E80
:100060000C940A1E0C940A1E5430812FA02FB12F1D
:10007000C92FE22F1E302D30F52FE52F05303330FC
:100080004330001001100210031004100510061078
:1000900006100710081009100A100B100C100D1094
:1000A0000E100F1010101110121013101310141046
:1000B000151016101710181019101A101B101C10FC
:1000C0001D101E101F1020102010211022102310B0
:1000D0002410251026102710281029102A102B1064
:1000E0002C102D102E102E102F1030103110321019
:1000F00033103410351036103710381039103A10CC
:100100003B103C103D103D103E103F104010411080
:100110004210431044104510461047104810491033
:100120004A104B104C104C104D104E104F105010E8
:10013000511052105310541055105610571058109B
:1001400059105A105B105C105D105D105E105F104E
:100150006010611062106310641065106610671003
:10016000681069106A106B106C106D106E106F10B3
:100170006F1070107110721073107410751076106B
:100180007710781079107A107B107C107D107E101B
:100190007F108010811082108210831084108510CF
:1001A00086108710881089108A108B108C108D1083
:1001B0008E108F1090109110921093109410951033
:1001C000961097109810981099109A109B109C10E8
:1001D0009D109E109F10A010A110A210A310A4109B
:1001E000A510A610A710A810A910AA10AB10AC104B
:1001F000AD10AE10AF10B010B110B110B210B310FE
:10020000B410B510B610B710B810B910BA10BB10B2
:10021000BC10BD10BE10BF10C010C110C210C31062
:10022000C410C510C610C710C810C910CA10CB1012
:10023000CC10CD10CE10CF10CF10D010D110D210C6
:10024000D310D410D510D610D710D810D910DA107A
:10025000DB10DC10DD10DE10DF10E010E110E2102A
:10026000E310E410E510E610E710E810E910EA10DA
:10027000EB10EC10ED10EE10EF10F010F110F2108A
:10028000F310F410F510F610F610F710F810F9103E
:10029000FA10FB10FC10FD10FE10FF1000110111F0
:1002A000021103110411051106110711081109119A
:1002B0000A110B110C110D110E110F11101111114A
:1002C00012111311141115111611171118111911FA
:1002D0001A111B111C111D111E111F1120112111AA
:1002E000221123112411251126112711281129115A
:1002F0002A112B112C112D112E112F11301131110A
:1003000032113311341135113611371138113911B9
:100310003A113B113C113D113E113F114011411169
:100320004211431144114511461147114811491119
:100330004A114B114C114D114E114F1150115111C9
:100340005211531154115511561157115811591179
:100350005A115B115C115D115E115F116011611129
:1003600062116311641165116611671168116911D9
:100370006A116B116C116D116E116F117011711189
:100380007211731174117511761177117811791139
:100390007A117B117C117D117E117F1180118111E9
:1003A0008211831184118511861187118811891199
:1003B0008A118B118C118D118E118F119011911149
:1003C00092119311941195119611971198119911F9
:1003D0009A119B119C119D119E119F11A011A111A9
:1003E000A211A311A411A511A611A711A811A91159
:1003F000AA11AC11AD11AE11AF11B011B111B21102
:10040000B311B411B511B611B711B811B911BA11B0
:10041000BB11BC11BD11BE11BF11C011C111C21160
:10042000C311C411C511C611C711C811C911CA1110
:10043000CB11CC11CD11CE11CF11D011D111D211C0
:10044000D311D511D611D711D811D911DA11DB1169
:10045000DC11DD11DE11DF11E011E111E211E31118
:10046000E411E511E611E711E811E911EA11EB11C8
:10047000EC11ED11EE11EF11F011F111F211F41177
:10048000F511F611F711F811F911FA11FB11FC1120
:10049000FD11FE11FF1100120112021203120412CB
:1004A000051206120712081209120A120B120C1278
:1004B0000E120F1210121112121213121412151220
:1004C00016121712181219121A121B121C121D12D0
:1004D0001E121F122012211222122312251226127E
:1004E0002712281229122A122B122C122D122E1228
:1004F0002F123012311232123312341235123612D8
:10050000371238123A123B123C123D123E123F1281
:10051000401241124212431244124512461247122F
:10052000481249124A124B124D124E124F125012DB
:100530005112521253125412551256125712581287
:1005400059125A125B125C125D125F126012611234
:1005500062126312641265126612671268126912DF
:100560006A126B126C126D126E127012711272128C
:1005700073127412751276127712781279127A1237
:100580007B127C127D127E128012811282128312E3
:100590008412851286128712881289128A128B128F
:1005A0008C128D128F129012911292129312941239
:1005B000951296129712981299129A129B129C12E7
:1005C0009E129F12A012A112A212A312A412A5128F
:1005D000A612A712A812A912AA12AC12AD12AE123C
:1005E000AF12B012B112B212B312B412B512B612E7
:1005F000B712B812BA12BB12BC12BD12BE12BF1291
:10060000C012C112C212C312C412C512C712C8123C
:10061000C912CA12CB12CC12CD12CE12CF12D012E6
:10062000D112D312D412D512D612D712D812D9128F
:10063000DA12DB12DC12DD12DE12E012E112E2123B
:10064000E312E412E512E612E712E812E912EB12E5
:10065000EC12ED12EE12EF12F012F112F212F3128E
:10066000F412F512F712F812F912FA12FB12FC1238
:10067000FD12FE12FF1200130213031304130513DD
:1006800006130713081309130A130B130C130E1385
:100690000F1310131113121313131413151316132E
:1006A000181319131A131B131C131D131E131F13D6
:1006B0002013211323132413251326132713281380
:1006C00029132A132B132D132E132F133013311329
:1006D00032133313341335133613381339133A13D3
:1006E0003B133C133D133E133F134013421343137C
:1006F0004413451346134713481349134A134C1325
:100700004D134E134F1350135113521353135513CC
:1007100056135713581359135A135B135C135D1375
:100720005F1360136113621363136413651366131D
:10073000681369136A136B136C136D136E136F13C5
:10074000711372137313741375137613771378136D
:100750007A137B137C137D137E137F138013811315
:1007600083138413851386138713881389138A13BD
:100770008C138D138E138F13901391139213931365
:10078000951396139713981399139A139B139D130C
:100790009E139F13A013A113A213A313A413A613B4
:1007A000A713A813A913AA13AB13AC13AE13AF135B
:1007B000B013B113B213B313B413B513B713B81303
:1007C000B913BA13BB13BC13BD13BF13C013C113AA
:1007D000C213C313C413C513C713C813C913CA1351
:1007E000CB13CC13CD13CF13D013D113D213D313F8
:1007F000D413D513D713D813D913DA13DB13DC139F
:10080000DE13DF13E013E113E213E313E413E61343
:10081000E713E813E913EA13EB13EC13EE13EF13EA
:10082000F013F113F213F313F513F613F713F81390
:10083000F913FA13FB13FD13FE13FF130014011435
:1008400002140414051406140714081409140A14D5
:100850000C140D140E140F1410141114131414147A
:1008600015141614171418141A141B141C141D1420
:100870001E141F14201422142314241425142614C7
:10088000271429142A142B142C142D142E1430146C
:100890003114321433143414351437143814391411
:1008A0003A143B143C143E143F14401441144214B7
:1008B0004314451446144714481449144B144C145B
:1008C0004D144E144F145014521453145414551400
:1008D0005614571459145A145B145C145D145E14A6
:1008E0006014611462146314641466146714681449
:1008F00069146A146B146D146E146F1470147114EF
:100900007314741475147614771478147A147B1491
:100910007C147D147E148014811482148314841436
:1009200085148714881489148A148B148D148E14DA
:100930008F1490149114931494149514961497147E
:1009400098149A149B149C149D149E14A014A11422
:10095000A214A314A414A614A714A814A914AA14C6
:10096000AC14AD14AE14AF14B014B114B314B41469
:10097000B514B614B714B914BA14BB14BC14BD140E
:10098000BF14C014C114C214C314C514C614C714B0
:10099000C814C914CB14CC14CD14CE14CF14D11454
:1009A000D214D314D414D514D714D814D914DA14F7
:1009B000DB14DD14DE14DF14E014E214E314E41499
:1009C000E514E614E814E914EA14EB14EC14EE143C
:1009D000EF14F014F114F214F414F514F614F714DF
:1009E000F814FA14FB14FC14FD14FF14001501157F
:1009F00002150315051506150715081509150B151C
:100A00000C150D150E1510151115121513151415BD
:100A100016151715181519151B151C151D151E155E
:100A20001F15211522152315241525152715281501
:100A300029152A152C152D152E152F1530153215A3
:100A40003315341535153715381539153A153C1544
:100A50003D153E153F1540154215431544154515E6
:100A60004715481549154A154B154D154E154F1587
:100A70005015521553155415551557155815591528
:100A80005A155C155D155E155F15601562156315C9
:100A9000641565156715681569156A156C156D156A
:100AA0006E156F157115721573157415751577150B
:100AB000781579157A157C157D157E157F158115AC
:100AC00082158315841586158715881589158B154C
:100AD0008C158D158E1590159115921593159515EC
:100AE0009615971598159A159B159C159D159F158C
:100AF000A015A115A215A415A515A615A715A9152C
:100B0000AA15AB15AC15AE15AF15B015B115B315CB
:100B1000B415B515B615B815B915BA15BB15BD156B
:100B2000BE15BF15C015C215C315C415C515C7150B
:100B3000C815C915CA15CC15CD15CE15CF15D115AB
:100B4000D215D315D415D615D715D815DA15DB154A
:100B5000DC15DD15DF15E015E115E215E415E515E9
:100B6000E615E715E915EA15EB15EC15EE15EF1589
:100B7000F015F215F315F415F515F715F815F91527
:100B8000FA15FC15FD15FE150016011602160316C2
:100B900005160616071608160A160B160C160E165C
:100BA0000F161016111613161416151616161816FB
:100BB00019161A161C161D161E161F162116221699
:100BC000231624162616271628162A162B162C1638
:100BD0002D162F16301631163316341635163616D6
:100BE000381639163A163C163D163E163F16411673
:100BF0004216431645164616471648164A164B1611
:100C00004C164E164F1650165116531654165516AE
:100C10005716581659165A165C165D165E1660164B
:100C200061166216641665166616671669166A16E8
:100C30006B166D166E166F16701672167316741686
:100C40007616771678167A167B167C167D167F1622
:100C500080168116831684168516871688168916BF
:100C60008A168C168D168E1690169116921694165C
:100C700095169616971699169A169B169D169E16F9
:100C80009F16A116A216A316A516A616A716A81695
:100C9000AA16AB16AC16AE16AF16B016B216B31631
:100CA000B416B616B716B816BA16BB16BC16BD16CD
:100CB000BF16C016C116C316C416C516C716C81669
:100CC000C916CB16CC16CD16CF16D016D116D21605
:100CD000D416D516D616D816D916DA16DC16DD16A1
:100CE000DE16E016E116E216E416E516E616E8163C
:100CF000E916EA16EC16ED16EE16F016F116F216D7
:100D0000F416F516F616F816F916FA16FC16FD1670
:100D1000FE16FF1601170217031705170617071708
:100D200009170A170B170D170E170F1711171217A0
:100D3000131715171617171719171A171B171D173B
:100D40001E171F17211722172317251726172717D6
:100D500029172A172B172D172E173017311732176F
:100D6000341735173617381739173A173C173D1708
:100D70003E174017411742174417451746174817A3
:100D800049174A174C174D174E175017511752173E
:100D9000541755175617581759175B175C175D17D7
:100DA0005F17601761176317641765176717681770
:100DB00069176B176C176D176F177017711773170B
:100DC00074177617771778177A177B177C177E17A3
:100DD0007F1780178217831784178617871789173D
:100DE0008A178B178D178E178F17911792179317D6
:100DF00095179617981799179A179C179D179E176E
:100E0000A017A117A217A417A517A717A817A91706
:100E1000AB17AC17AD17AF17B017B117B317B4179F
:100E2000B617B717B817BA17BB17BC17BE17BF1737
:100E3000C117C217C317C517C617C717C917CA17CF
:100E4000CC17CD17CE17D017D117D217D417D51767
:100E5000D717D817D917DB17DC17DD17DF17E017FF
:100E6000E217E317E417E617E717E817EA17EB1797
:100E7000ED17EE17EF17F117F217F417F517F6172E
:100E8000F817F917FA17FC17FD17FF1700180118C4
:100E9000031804180618071808180A180B180C1855
:100EA0000E180F18111812181318151816181818EC
:100EB00019181A181C181D181F1820182118231883
:100EC00024182618271828182A182B182D182E1819
:100ED0002F183118321834183518361838183918B0
:100EE0003A183C183D183F18401841184318441848
:100EF0004618471849184A184B184D184E185018DC
:100F000051185218541855185718581859185B1872
:100F10005C185E185F186018621863186518661808
:100F2000671869186A186C186D186E18701871189F
:100F3000731874187618771878187A187B187D1833
:100F40007E187F18811882188418851887188818C9
:100F500089188B188C188E188F189018921893185F
:100F600095189618981899189A189C189D189F18F3
:100F7000A018A218A318A418A618A718A918AA1888
:100F8000AB18AD18AE18B018B118B318B418B5181E
:100F9000B718B818BA18BB18BD18BE18BF18C118B2
:100FA000C218C418C518C718C818C918CB18CC1847
:100FB000CE18CF18D118D218D318D518D618D818DB
:100FC000D918DB18DC18DE18DF18E018E218E3186F
:100FD000E518E618E818E918EA18EC18ED18EF1803
:100FE000F018F218F318F518F618F718F918FA1897
:100FF000FC18FD18FF180019021903190419061925
:10100000071909190A190C190D190F1910191119B5
:10101000131914191619171919191A191C191D1948
:101020001F192019211923192419261927192919DB
:101030002A192C192D192E1930193119331934196F
:101040003619371939193A193C193D193F19401900
:101050004119431944194619471949194A194C1994
:101060004D194F1950195119531954195619571927
:1010700059195A195C195D195F19601962196319B8
:1010800065196619671969196A196C196D196F194B
:1010900070197219731975197619781979197B19DC
:1010A0007C197E197F19801982198319851986196F
:1010B000881989198B198C198E198F199119921900
:1010C00094199519971998199A199B199D199E1990
:1010D0009F19A119A219A419A519A719A819AA1924
:1010E000AB19AD19AE19B019B119B319B419B619B4
:1010F000B719B919BA19BC19BD19BF19C019C21944
:10110000C319C519C619C819C919CB19CC19CE19D3
:10111000CF19D019D219D319D519D619D819D91967
:10112000DB19DC19DE19DF19E119E219E419E519F7
:10113000E719E819EA19EB19ED19EE19F019F11987
:10114000F319F419F619F719F919FA19FC19FD1917
:10115000FF19001A021A031A051A061A081A091AA0
:101160000B1A0C1A0E1A0F1A111A121A141A151A2F
:10117000171A181A1A1A1B1A1D1A1E1A201A211ABF
:10118000231A251A261A281A291A2B1A2C1A2E1A4B
:101190002F1A311A321A341A351A371A381A3A1ADB
:1011A0003B1A3D1A3E1A401A411A431A441A461A6B
:1011B000471A491A4A1A4C1A4D1A4F1A501A521AFB
:1011C000531A551A571A581A5A1A5B1A5D1A5E1A88
:1011D000601A611A631A641A661A671A691A6A1A17
:1011E0006C1A6D1A6F1A701A721A741A751A771AA5
:1011F000781A7A1A7B1A7D1A7E1A801A811A831A33
:10120000841A861A871A891A8A1A8C1A8E1A8F1AC1
:10121000911A921A941A951A971A981A9A1A9B1A4E
:101220009D1A9E1AA01AA11AA31AA51AA61AA81ADC
:10123000A91AAB1AAC1AAE1AAF1AB11AB21AB41A6A
:10124000B61AB71AB91ABA1ABC1ABD1ABF1AC01AF6
:10125000C21AC31AC51AC71AC81ACA1ACB1ACD1A83
:10126000CE1AD01AD11AD31AD41AD61AD81AD91A11
:10127000DB1ADC1ADE1ADF1AE11AE21AE41AE61A9D
:10128000E71AE91AEA1AEC1AED1AEF1AF01AF21A2A
:10129000F41AF51AF71AF81AFA1AFB1AFD1AFE1AB6
:1012A000001B021B031B051B061B081B091B0B1B3A
:1012B0000C1B0E1B101B111B131B141B161B171BC7
:1012C000191B1B1B1C1B1E1B1F1B211B221B241B52
:1012D000261B271B291B2A1B2C1B2D1B2F1B301BDE
:1012E000321B341B351B371B381B3A1B3B1B3D1B6A
:1012F0003F1B401B421B431B451B471B481B4A1BF4
:101300004B1B4D1B4E1B501B521B531B551B561B7F
:10131000581B591B5B1B5D1B5E1B601B611B631B0A
:10132000651B661B681B691B6B1B6C1B6E1B701B94
:10133000711B731B741B761B781B791B7B1B7C1B1F
:101340007E1B7F1B811B831B841B861B871B891BAA
:101350008B1B8C1B8E1B8F1B911B931B941B961B33
:10136000971B991B9B1B9C1B9E1B9F1BA11BA21BBE
:10137000A41BA61BA71BA91BAA1BAC1BAE1BAF1B48
:10138000B11BB21BB41BB61BB71BB91BBA1BBC1BD2
:10139000BE1BBF1BC11BC21BC41BC61BC71BC91B5B
:1013A000CB1BCC1BCE1BCF1BD11BD31BD41BD61BE3
:1013B000D71BD91BDB1BDC1BDE1BDF1BE11BE31B6D
:1013C000E41BE61BE71BE91BEB1BEC1BEE1BF01BF6
:1013D000F11BF31BF41BF61BF81BF91BFB1BFC1B7F
:1013E000FE1B001C011C031C051C061C081C091C00
:1013F0000B1C0D1C0E1C101C111C131C151C161C88
:10140000181C1A1C1B1C1D1C1E1C201C221C231C0F
:10141000251C271C281C2A1C2B1C2D1C2F1C301C97
:10142000321C341C351C371C391C3A1C3C1C3D1C1E
:101430003F1C411C421C441C461C471C491C4A1CA6
:101440004C1C4E1C4F1C511C531C541C561C581C2D
:10145000591C5B1C5C1C5E1C601C611C631C651CB5
:10146000661C681C6A1C6B1C6D1C6F1C701C721C3B
:10147000731C751C771C781C7A1C7C1C7D1C7F1CC3
:10148000811C821C841C861C871C891C8A1C8C1C49
:101490008E1C8F1C911C931C941C961C981C991CD0
:1014A0009B1C9D1C9E1CA01CA21CA31CA51CA71C55
:1014B000A81CAA1CAC1CAD1CAF1CB01CB21CB41CDC
:1014C000B51CB71CB91CBA1CBC1CBE1CBF1CC11C63
:1014D000C31CC41CC61CC81CC91CCB1CCD1CCE1CE8
:1014E000D01CD21CD31CD51CD71CD81CDA1CDC1C6D
:1014F000DD1CDF1CE11CE21CE41CE61CE71CE91CF3
:10150000EB1CEC1CEE1CF01CF11CF31CF51CF61C77
:10151000F81CFA1CFB1CFD1CFF1C001D021D041DF9
:10152000061D071D091D0B1D0C1D0E1D101D111D77
:10153000131D151D161D181D1A1D1B1D1D1D1F1DFC
:10154000201D221D241D251D271D291D2A1D2C1D82
:101550002E1D301D311D331D351D361D381D3A1D04
:101560003B1D3D1D3F1D401D421D441D451D471D8A
:10157000491D4B1D4C1D4E1D501D511D531D551D0C
:10158000561D581D5A1D5B1D5D1D5F1D611D621D91
:10159000641D661D671D691D6B1D6C1D6E1D701D14
:1015A000721D731D751D771D781D7A1D7C1D7D1D97
:1015B0007F1D811D831D841D861D881D891D8B1D1A
:1015C0008D1D8F1D901D921D941D951D971D991D9C
:1015D0009A1D9C1D9E1DA01DA11DA31DA51DA61D20
:1015E000A81DAA1DAC1DAD1DAF1DB11DB21DB41DA2
:1015F000B61DB81DB91DBB1DBD1DBE1DC01DC21D24
:10160000C41DC51DC71DC91DCB1DCC1DCE1DD01DA4
:10161000D11DD31DD51DD71DD81DDA1DDC1DDD1D27
:10162000DF1DE11DE31DE41DE61DE81DEA1DEB1DA8
:10163000ED1DEF1DF01DF21DF41DF61DF71DF91D2A
:10164000FB1DFD1DFE1D001E021E041E051E071EA5
:10165000091E0A1E0C1E0E1E101E111E131E151E24
:10166000171E181E1A1E1C1E1E1E1F1E211E231EA4
:10167000251E261E281E2A1E2C1E2D1E2F1E311E24
:10168000321E341E361E381E391E3B1E3D1E3F1EA6
:10169000401E421E441E461E471E491E4B1E4D1E26
:1016A0004E1E501E521E541E551E571E591E5B1EA6
:1016B0005C1E5E1E601E621E631E651E671E691E26
:1016C0006A1E6C1E6E1E701E721E731E751E771EA5
:1016D000791E7A1E7C1E7E1E801E811E831E851E24
:1016E000871E881E8A1E8C1E8E1E8F1E911E931EA4
:1016F000951E971E981E9A1E9C1E9E1E9F1EA11E22
:10170000A31EA51EA61EA81EAA1EAC1EAE1EAF1EA0
:10171000B11EB31EB51EB61EB81EBA1EBC1EBE1E1E
:10172000BF1EC11EC31EC51EC61EC81ECA1ECC1E9D
:10173000CE1ECF1ED11ED31ED51ED61ED81EDA1E1B
:10174000DC1EDE1EDF1EE11EE31EE51EE61EE81E99
:10175000EA1EEC1EEE1EEF1EF11EF31EF51EF71E16
:10176000F81EFA1EFC1EFE1EFF1E011F031F051F92
:10177000071F081F0A1F0C1F0E1F101F111F131F0A
:10178000151F171F191F1A1F1C1F1E1F201F221F86
:10179000231F251F271F291F2B1F2C1F2E1F301F04
:1017A000321F341F351F371F391F3B1F3D1F3E1F80
:1017B000401F421F441F461F471F491F4B1F4D1FFD
:1017C0004F1F501F521F541F561F581F5A1F5B1F79
:1017D0005D1F5F1F611F631F641F661F681F6A1FF5
:1017E0006C1F6D1F6F1F711F731F751F771F781F71
:1017F0007A1F7C1F7E1F801F811F831F851F871FED
:10180000891F8B1F8C1F8E1F901F921F941F951F67
:10181000971F991F9B1F9D1F9F1FA01FA21FA41FE3
:10182000A61FA81FAA1FAB1FAD1FAF1FB11FB31F5D
:10183000B51FB61FB81FBA1FBC1FBE1FC01FC11FD8
:10184000C31FC51FC71FC91FCB1FCC1FCE1FD01F53
:10185000D21FD41FD61FD71FD91FDB1FDD1FDF1FCD
:10186000E11FE21FE41FE61FE81FEA1FEC1FEE1F47
:10187000EF1FF11FF31FF51FF71FF91FFA1FFC1FC2
:10188000FE1F010001000100010001000100010034
:101890000100010001000100010001000100010040
:1018A0000100010003000300030003000300030024
:1018B0000300030003000300030003000300030010
:1018C00003000100050007000700070007000700EC
:1018D00007000700070007000700070007000700D0
:1018E0000700010005000D000F000F000F000F00A2
:1018F0000F000F000F000F000F000F000F000F0070
:101900000F00010009000D001D001F001F001F0037
:101910001F001F001F001F001F001F001F001F00CF
:101920001F000100090015002D003D003F003F0091
:101930003F003F003F003F003F003F003F003F00AF
:101940003F000100110029002D005D007D007F0097
:101950007F007F007F007F007F007F007F007F008F
:101960007F000100110029005500AD00DD00FD00E1
:10197000FF00FF00FF00FF00FF00FF00FF00FF006F
:10198000FF00010021004900A900AD006D01BD016B
:10199000FD01FF01FF01FF01FF01FF01FF01FF0149
:1019A000FF0101002100910029015501AD01DD0277
:1019B000BD03FD03FF03FF03FF03FF03FF03FF035B
:1019C000FF030100410091002901A902AD02AD050C
:1019D000DD067D07FD07FF07FF07FF07FF07FF077E
:1019E000FF070100410011014902A9045505AD0698
:1019F0006D0BDD0D7D0FFD0FFF0FFF0FFF0FFF0FB5
:101A0000FF0F01008100210291042909A90AAD0AF2
:101A1000AD0DDD16BD1BFD1EFD1FFF1FFF1FFF1FB0
:101A2000FF1F01008100210291082909A914551501
:101A3000AD16AD2DDD2EBD3BFD3EFD3FFF3FFF3F13
:101A4000FF3F010001012104910849122925A92A1B
:101A5000AD2AAD356D5BDD6EBD77FD7DFD7FFF7F12
:101A6000FF7F010001014108111191242929A95288
:101A70005555AD5AADADDDB6DDDD7DEFFDFDFDFFAC
:101A8000FFFF020301030405010504060206080A1C
:101A9000020A080C040C1014041410180818101171
:101AA0000111000102030405060708090A0B0C0DC9
:101AB0000E0F0F0E0D0C0B0A090807060504030292
:101AC000010000020406080A0C0E0F0E0C0A08069C
:101AD00004020F0E0C0A0806040200020406080A9B
:101AE0000C0E00010204070B0D0E0F0E0D0B070468
:101AF00002010F0E0D0B0704020100010204070B87
:101B00000D0E070301000103070B0E0F0E0B090852
:101B1000090D080C0E0F0E0C080401000104080743
:101B20000802000000010102020303040506080A7E
:101B30000C0F0F0F0F0E0E0D0D0C0C0B0A090705E5
:101B4000030000030507090A0B0C0C0D0D0E0E0F08
:101B50000F0F0F0C0A08060504030302020101001F
:101B60000000000F000F000F000F000F000F000F0C
:101B7000000F0F000F000F000F000F000F000F00ED
:101B80000F00070A0602080E0700080F040B0509DC
:101B90000D030805090D0701080F07000B040A06CD
:101BA000020CE4EE7CE1D4D4E2C89CBDF7B2ECA810
:101BB000719F7E960C8E13868C7E010081008500BD
:101BC00085029502950AB50AB50975098B01C90800
:101BD0009909590A6D0BED07FF0F0000040008007A
:101BE0000C001000140018001C0020002400280025
:101BF0002C003000340038003C0040004400480015
:101C00004C005000540058005C0060006400680004
:101C10006C007000740078007C00800084008800F4
:101C20008C009000940098009C00A000A400A800E4
:101C3000AC00B000B400B800BC00C000C400C800D4
:101C4000CC00D000D400D800DC00E000E400E800C4
:101C5000EC00F000F400F800FC00000104010801B1
:101C60000C011001140118011C012001240128019C
:101C70002C013001340138013C014001440148018C
:101C80004C015001540158015C016001640168017C
:101C90006C017001740178017C018001840188016C
:101CA0008C019001940198019C01A001A401A8015C
:101CB000AC01B001B401B801BC01C001C401C8014C
:101CC000CC01D001D401D801DC01E001E401E8013C
:101CD000EC01F001F401F801FC0100020402080229
:101CE0000C021002140218021C0220022402280214
:101CF0002C023002340238023C0240024402480204
:101D00004C025002540258025C02600264026802F3
:101D10006C027002740278027C02800284028802E3
:101D20008C029002940298029C02A002A402A802D3
:101D3000AC02B002B402B802BC02C002C402C802C3
:101D4000CC02D002D402D802DC02E002E402E802B3
:101D5000EC02F002F402F802FC02000304030803A0
:101D60000C031003140318031C032003240328038B
:101D70002C033003340338033C034003440348037B
:101D80004C035003540358035C036003640368036B
:101D90006C037003740378037C038003840388035B
:101DA0008C039003940398039C03A003A403A8034B
:101DB000AC03B003B403B803BC03C003C403C8033B
:101DC000CC03D003D403D803DC03E003E403E8032B
:101DD000EC03F003F403F803FC0300040404080418
:101DE0000C041004140418041C0420042404280403
:101DF0002C043004340438043C04400444044804F3
:101E00004C045004540458045C04600464046804E2
:101E10006C047004740478047C04800484048804D2
:101E20008C049004940498049C04A004A404A804C2
:101E3000AC04B004B404B804BC04C004C404C804B2
:101E4000CC04D004D404D804DC04E004E404E804A2
:101E5000EC04F004F404F804FC040005040508058F
:101E60000C051005140518051C052005240528057A
:101E70002C053005340538053C054005440548056A
:101E80004C055005540558055C056005640568055A
:101E90006C057005740578057C058005840588054A
:101EA0008C059005940598059C05A005A405A8053A
:101EB000AC05B005B405B805BC05C005C405C8052A
:101EC000CC05D005D405D805DC05E005E405E8051A
:101ED000EC05F005F405F805FC0500060406080607
:101EE0000C061006140618061C06200624062806F2
:101EF0002C063006340638063C06400644064806E2
:101F00004C065006540658065C06600664066806D1
:101F10006C067006740678067C06800684068806C1
:101F20008C069006940698069C06A006A406A806B1
:101F3000AC06B006B406B806BC06C006C406C806A1
:101F4000CC06D006D406D806DC06E006E406E80691
:101F5000EC06F006F406F806FC060007040708077E
:101F60000C071007140718071C0720072407280769
:101F70002C073007340738073C0740074407480759
:101F80004C075007540758075C0760076407680749
:101F90006C077007740778077C0780078407880739
:101FA0008C079007940798079C07A007A407A80729
:101FB000AC07B007B407B807BC07C007C407C80719
:101FC000CC07D007D407D807DC07E007E407E80709
:101FD000EC07F007F407F807FC07000804080808F6
:101FE0000C081008140818081C08200824082808E1
:101FF0002C083008340838083C08400844084808D1
:102000004C085008540858085C08600864086808C0
:102010006C087008740878087C08800884088808B0
:102020008C089008940898089C08A008A408A808A0
:10203000AC08B008B408B808BC08C008C408C80890
:10204000CC08D008D408D808DC08E008E408E80880
:10205000EC08F008F408F808FC080009040908096D
:102060000C091009140918091C0920092409280958
:102070002C093009340938093C0940094409480948
:102080004C095009540958095C0960096409680938
:102090006C097009740978097C0980098409880928
:1020A0008C099009940998099C09A009A409A80918
:1020B000AC09B009B409B809BC09C009C409C80908
:1020C000CC09D009D409D809DC09E009E409E809F8
:1020D000EC09F009F409F809FC09000A040A080AE5
:1020E0000C0A100A140A180A1C0A200A240A280AD0
:1020F0002C0A300A340A380A3C0A400A440A480AC0
:102100004C0A500A540A580A5C0A600A640A680AAF
:102110006C0A700A740A780A7C0A800A840A880A9F
:102120008C0A900A940A980A9C0AA00AA40AA80A8F
:10213000AC0AB00AB40AB80ABC0AC00AC40AC80A7F
:10214000CC0AD00AD40AD80ADC0AE00AE40AE80A6F
:10215000EC0AF00AF40AF80AFC0A000B040B080B5C
:102160000C0B100B140B180B1C0B200B240B280B47
:102170002C0B300B340B380B3C0B400B440B480B37
:102180004C0B500B540B580B5C0B600B640B680B27
:102190006C0B700B740B780B7C0B800B840B880B17
:1021A0008C0B900B940B980B9C0BA00BA40BA80B07
:1021B000AC0BB00BB40BB80BBC0BC00BC40BC80BF7
:1021C000CC0BD00BD40BD80BDC0BE00BE40BE80BE7
:1021D000EC0BF00BF40BF80BFC0B000C040C080CD4
:1021E0000C0C100C140C180C1C0C200C240C280CBF
:1021F0002C0C300C340C380C3C0C400C440C480CAF
:102200004C0C500C540C580C5C0C600C640C680C9E
:102210006C0C700C740C780C7C0C800C840C880C8E
:102220008C0C900C940C980C9C0CA00CA40CA80C7E
:10223000AC0CB00CB40CB80CBC0CC00CC40CC80C6E
:10224000CC0CD00CD40CD80CDC0CE00CE40CE80C5E
:10225000EC0CF00CF40CF80CFC0C000D040D080D4B
:102260000C0D100D140D180D1C0D200D240D280D36
:102270002C0D300D340D380D3C0D400D440D480D26
:102280004C0D500D540D580D5C0D600D640D680D16
:102290006C0D700D740D780D7C0D800D840D880D06
:1022A0008C0D900D940D980D9C0DA00DA40DA80DF6
:1022B000AC0DB00DB40DB80DBC0DC00DC40DC80DE6
:1022C000CC0DD00DD40DD80DDC0DE00DE40DE80DD6
:1022D000EC0DF00DF40DF80DFC0D000E040E080EC3
:1022E0000C0E100E140E180E1C0E200E240E280EAE
:1022F0002C0E300E340E380E3C0E400E440E480E9E
:102300004C0E500E540E580E5C0E600E640E680E8D
:102310006C0E700E740E780E7C0E800E840E880E7D
:102320008C0E900E940E980E9C0EA00EA40EA80E6D
:10233000AC0EB00EB40EB80EBC0EC00EC40EC80E5D
:10234000CC0ED00ED40ED80EDC0EE00EE40EE80E4D
:10235000EC0EF00EF40EF80EFC0E000F040F080F3A
:102360000C0F100F140F180F1C0F200F240F280F25
:102370002C0F300F340F380F3C0F400F440F480F15
:102380004C0F500F540F580F5C0F600F640F680F05
:102390006C0F700F740F780F7C0F800F840F880FF5
:1023A0008C0F900F940F980F9C0FA00FA40FA80FE5
:1023B000AC0FB00FB40FB80FBC0FC00FC40FC80FD5
:1023C000CC0FD00FD40FD80FDC0FE00FE40FE80FC5
:1023D000EC0FF00FF40FF80FFC0F00000F001F00C0
:1023E0002F003F004F005F006F007F008F009F00B5
:1023F000AF00BF00CF00DF00EF00FF000F011F01A3
:102400002F013F014F015F016F017F018F019F018C
:10241000AF01BF01CF01DF01EF01FF010F021F027A
:102420002F023F024F025F026F027F028F029F0264
:10243000AF02BF02CF02DF02EF02FF020F031F0352
:102440002F033F034F035F036F037F038F039F033C
:10245000AF03BF03CF03DF03EF03FF030F041F042A
:102460002F043F044F045F046F047F048F049F0414
:10247000AF04BF04CF04DF04EF04FF040F051F0502
:102480002F053F054F055F056F057F058F059F05EC
:10249000AF05BF05CF05DF05EF05FF050F061F06DA
:1024A0002F063F064F065F066F067F068F069F06C4
:1024B000AF06BF06CF06DF06EF06FF060F071F07B2
:1024C0002F073F074F075F076F077F078F079F079C
:1024D000AF07BF07CF07DF07EF07FF070F081F088A
:1024E0002F083F084F085F086F087F088F089F0874
:1024F000AF08BF08CF08DF08EF08FF080F091F0962
:102500002F093F094F095F096F097F098F099F094B
:10251000AF09BF09CF09DF09EF09FF090F0A1F0A39
:102520002F0A3F0A4F0A5F0A6F0A7F0A8F0A9F0A23
:10253000AF0ABF0ACF0ADF0AEF0AFF0A0F0B1F0B11
:102540002F0B3F0B4F0B5F0B6F0B7F0B8F0B9F0BFB
:10255000AF0BBF0BCF0BDF0BEF0BFF0B0F0C1F0CE9
:102560002F0C3F0C4F0C5F0C6F0C7F0C8F0C9F0CD3
:10257000AF0CBF0CCF0CDF0CEF0CFF0C0F0D1F0DC1
:102580002F0D3F0D4F0D5F0D6F0D7F0D8F0D9F0DAB
:10259000AF0DBF0DCF0DDF0DEF0DFF0D0F0E1F0E99
:1025A0002F0E3F0E4F0E5F0E6F0E7F0E8F0E9F0E83
:1025B000AF0EBF0ECF0EDF0EEF0EFF0E0F0F1F0F71
:1025C0002F0F3F0F4F0F5F0F6F0F7F0F8F0F9F0F5B
:1025D000AF0FBF0FCF0FDF0FEF0FFF0FFA0FF50F8A
:1025E000F00FEA0FE50FE00FDA0FD50FD00FCA0F8B
:1025F000C50FC00FBA0FB50FB00FAA0FA50FA00FD0
:102600009A0F950F900F8A0F850F800F7A0F750F15
:10261000700F6A0F650F600F5A0F550F500F4A0F5A
:10262000450F400F3A0F350F300F2A0F250F200F9F
:102630001A0F150F100F0A0F050F000FFA0EF50EE7
:10264000F00EEA0EE50EE00EDA0ED50ED00ECA0E32
:10265000C50EC00EBA0EB50EB00EAA0EA50EA00E77
:102660009A0E950E900E8A0E850E800E7A0E750EBD
:10267000700E6A0E650E600E5A0E550E500E4A0E02
:10268000450E400E3A0E350E300E2A0E250E200E47
:102690001A0E150E100E0A0E050E000EFA0DF50D8F
:1026A000F00DEA0DE50DE00DDA0DD50DD00DCA0DDA
:1026B000C50DC00DBA0DB50DB00DAA0DA50DA00D1F
:1026C0009A0D950D900D8A0D850D800D7A0D750D65
:1026D000700D6A0D650D600D5A0D550D500D4A0DAA
:1026E000450D400D3A0D350D300D2A0D250D200DEF
:1026F0001A0D150D100D0A0D050D000DFA0CF50C37
:10270000F00CEA0CE50CE00CDA0CD50CD00CCA0C81
:10271000C50CC00CBA0CB50CB00CAA0CA50CA00CC6
:102720009A0C950C900C8A0C850C800C7A0C750C0C
:10273000700C6A0C650C600C5A0C550C500C4A0C51
:10274000450C400C3A0C350C300C2A0C250C200C96
:102750001A0C150C100C0A0C050C000CFA0BF50BDE
:10276000F00BEA0BE50BE00BDA0BD50BD00BCA0B29
:10277000C50BC00BBA0BB50BB00BAA0BA50BA00B6E
:102780009A0B950B900B8A0B850B800B7A0B750BB4
:10279000700B6A0B650B600B5A0B550B500B4A0BF9
:1027A000450B400B3A0B350B300B2A0B250B200B3E
:1027B0001A0B150B100B0A0B050B000BFA0AF50A86
:1027C000F00AEA0AE50AE00ADA0AD50AD00ACA0AD1
:1027D000C50AC00ABA0AB50AB00AAA0AA50AA00A16
:1027E0009B0A950A900A8B0A850A800A7B0A750A59
:1027F000700A6B0A650A600A5B0A550A500A4B0A9E
:10280000450A400A3B0A350A300A2B0A250A200AE3
:102810001B0A150A100A0B0A050A000AFB09F5092A
:10282000F009EB09E509E009DB09D509D009CB0975
:10283000C509C009BB09B509B009AB09A509A009BB
:102840009B09950990098B09850980097B09750900
:1028500070096B09650960095B09550950094B0945
:10286000450940093B09350930092B09250920098B
:102870001B09150910090B0905090009FB08F508D2
:10288000F008EB08E508E008DB08D508D008CB081D
:10289000C508C008BB08B508B008AB08A508A00863
:1028A0009B08950890088B08850880087B087508A8
:1028B00070086B08650860085B08550850084B08ED
:1028C000450840083B08350830082B082508200833
:1028D0001B08150810080B0805080008FB07F5077A
:1028E000F007EB07E507E007DB07D507D007CB07C5
:1028F000C507C007BB07B507B007AB07A507A0070B
:102900009B07950790078B07850780077B0775074F
:1029100070076B07650760075B07550750074B0794
:10292000450740073B07350730072B0725072007DA
:102930001B07150710070B0705070007FB06F50621
:10294000F006EB06E506E006DB06D506D006CB066C
:10295000C506C006BB06B506B006AB06A506A006B2
:102960009B06950690068B06850680067B067506F7
:1029700070066B06650660065B06550650064B063C
:10298000450640063B06350630062B062506200682
:102990001B06150610060B0605060006FB05F505C9
:1029A000F005EB05E505E005DB05D505D005CB0514
:1029B000C505C005BB05B505B005AB05A505A0055A
:1029C0009B05950590058B05850580057B0575059F
:1029D00070056B05650560055B05550550054B05E4
:1029E000460540053B05360530052B052605200527
:1029F0001B05160510050B0506050005FB04F6046E
:102A0000F004EB04E604E004DB04D604D004CB04B9
:102A1000C604C004BB04B604B004AB04A604A004FE
:102A20009B04960490048B04860480047B04760443
:102A300070046B04660460045B04560450044B0489
:102A4000460440043B04360430042B0426042004CE
:102A50001B04160410040B0406040004FB03F60315
:102A6000F003EB03E603E003DB03D603D003CB0361
:102A7000C603C003BB03B603B003AB03A603A003A6
:102A80009B03960390038B03860380037B037603EB
:102A900070036B03660360035B03560350034B0331
:102AA000460340033B03360330032B032603200376
:102AB0001B03160310030B0306030003FB02F602BD
:102AC000F002EB02E602E002DB02D602D002CB0209
:102AD000C602C002BB02B602B002AB02A602A0024E
:102AE0009B02960290028B02860280027B02760293
:102AF00070026B02660260025B02560250024B02D9
:102B0000460240023B02360230022B02260220021D
:102B10001B02160210020B0206020002FB01F60164
:102B2000F001EB01E601E001DB01D601D001CB01B0
:102B3000C601C001BB01B601B001AB01A601A001F5
:102B40009B01960190018B01860180017B0176013A
:102B500070016B01660160015B01560150014B0180
:102B6000460140013B01360130012B0126012001C5
:102B70001B01160110010B0106010001FB00F6000C
:102B8000F000EB00E600E000DB00D600D000CB0058
:102B9000C600C000BB00B600B000AB00A600A0009D
:102BA0009B00960090008B00860080007B007600E2
:102BB00070006B00660060005B00560050004B0028
:102BC000460040003B00360030002B00260020006D
:102BD0001B00160010000B000600FF070B0818086A
:102BE000240831083D084A08560863086F087C0825
:102BF00089089508A208AE08BB08C708D408E008F1
:102C0000ED08F908060912091E092B0937094409BC
:102C100050095C096909750982098E099A09A60992
:102C2000B309BF09CB09D709E409F009FC09080A6F
:102C3000140A200A2D0A390A450A510A5D0A690A4E
:102C4000750A810A8D0A980AA40AB00ABC0AC80A41
:102C5000D30ADF0AEB0AF70A020B0E0B190B250B3E
:102C6000310B3C0B470B530B5E0B6A0B750B800B48
:102C70008C0B970BA20BAD0BB80BC30BCF0BDA0B66
:102C8000E50BEF0BFA0B050C100C1B0C260C300C93
:102C90003B0C460C500C5B0C650C700C7A0C850CD4
:102CA0008F0C990CA30CAE0CB80CC20CCC0CD60C2F
:102CB000E00CEA0CF40CFE0C070D110D1B0D240D9D
:102CC0002E0D380D410D4A0D540D5D0D660D700D24
:102CD000790D820D8B0D940D9D0DA60DAF0DB80DC8
:102CE000C00DC90DD20DDA0DE30DEB0DF40DFC0D89
:102CF000040E0D0E150E1D0E250E2D0E350E3D0E5D
:102D0000440E4C0E540E5C0E630E6B0E720E7A0E59
:102D1000810E880E8F0E960E9E0EA50EAB0EB20E75
:102D2000B90EC00EC70ECD0ED40EDA0EE10EE70EB0
:102D3000ED0EF40EFA0E000F060F0C0F120F170F08
:102D40001D0F230F290F2E0F340F390F3E0F440F85
:102D5000490F4E0F530F580F5D0F620F660F6B0F29
:102D6000700F740F790F7D0F820F860F8A0F8E0FF1
:102D7000920F960F9A0F9E0FA20FA50FA90FAD0FDE
:102D8000B00FB30FB70FBA0FBD0FC00FC30FC60FF1
:102D9000C90FCC0FCE0FD10FD40FD60FD90FDB0F29
:102DA000DD0FDF0FE10FE40FE50FE70FE90FEB0F8A
:102DB000ED0FEE0FF00FF10FF20FF40FF50FF60F0E
:102DC000F70FF80FF90FFA0FFA0FFB0FFC0FFC0FBC
:102DD000FD0FFD0FFD0FFD0FFD0FFE0FFD0FFD0F92
:102DE000FD0FFD0FFD0FFC0FFC0FFB0FFA0FFA0F8D
:102DF000F90FF80FF70FF60FF50FF40FF20FF10FB1
:102E0000F00FEE0FED0FEB0FE90FE70FE50FE40FFB
:102E1000E10FDF0FDD0FDB0FD90FD60FD40FD10F6E
:102E2000CE0FCC0FC90FC60FC30FC00FBD0FBA0F07
:102E3000B70FB30FB00FAD0FA90FA50FA20F9E0FC5
:102E40009A0F960F920F8E0F8A0F860F820F7D0FAB
:102E5000790F740F700F6B0F660F620F5D0F580FB5
:102E6000530F4E0F490F440F3E0F390F340F2E0FE3
:102E7000290F230F1D0F170F120F0C0F060F000F36
:102E8000FA0EF40EED0EE70EE10EDA0ED40ECD0EB4
:102E9000C70EC00EB90EB20EAB0EA50E9E0E960E4C
:102EA0008F0E880E810E7A0E720E6B0E630E5C0E04
:102EB000540E4C0E440E3D0E350E2D0E250E1D0EDD
:102EC000150E0D0E040EFC0DF40DEB0DE30DDA0DD9
:102ED000D20DC90DC00DB80DAF0DA60D9D0D940DF1
:102EE0008B0D820D790D700D660D5D0D540D4A0D23
:102EF000410D380D2E0D240D1B0D110D070DFE0C6F
:102F0000F40CEA0CE00CD60CCC0CC20CB80CAE0CD9
:102F1000A30C990C8F0C850C7A0C700C650C5B0C57
:102F2000500C460C3B0C300C260C1B0C100C050CEA
:102F3000FA0BEF0BE50BDA0BCF0BC30BB80BAD0B9A
:102F4000A20B970B8C0B800B750B6A0B5E0B530B54
:102F5000470B3C0B310B250B190B0E0B020BF70A21
:102F6000EB0ADF0AD30AC80ABC0AB00AA40A980A04
:102F70008D0A810A750A690A5D0A510A450A390AE9
:102F80002D0A200A140A080AFC09F009E409D709E5
:102F9000CB09BF09B309A6099A098E0982097509E7
:102FA00069095C095009440937092B091E091209EE
:102FB0000609F908ED08E008D408C708BB08AE0800
:102FC000A208950889087C086F08630856084A0813
:102FD0003D083108240818080B08FF07F307E60727
:102FE000DA07CD07C107B407A8079B078F07820739
:102FF000750769075C075007430737072A071E074D
:1030000011070507F806EC06E006D306C706BA0660
:10301000AE06A206950689067C067006640658066A
:103020004B063F06330627061A060E060206F6056D
:10303000EA05DE05D105C505B905AD05A10595056E
:1030400089057D05710566055A054E05420536055B
:103050002B051F0513050705FC04F004E504D9043E
:10306000CD04C204B704AB04A004940489047E0414
:10307000720467045C04510446043B042F042404D6
:1030800019040F040404F903EE03E303D803CE0389
:10309000C303B803AE03A30399038E038403790328
:1030A0006F0365035B03500346033C0332032803AD
:1030B0001E0314030A030003F702ED02E302DA021F
:1030C000D002C602BD02B402AA02A10298028E0278
:1030D00085027C0273026A02610258024F024602B4
:1030E0003E0235022C0224021B0213020A020202D3
:1030F000FA01F101E901E101D901D101C901C101DF
:10310000BA01B201AA01A2019B0193018C018401C1
:103110007D0176016F0168016001590153014C0185
:1031200045013E01370131012A0124011D0117012A
:1031300011010A010401FE00F800F200EC00E700B2
:10314000E100DB00D500D000CA00C500C000BA0015
:10315000B500B000AB00A600A1009C009800930051
:103160008E008A00850081007C0078007400700069
:103170006C006800640060005C005900550051005C
:103180004E004B004700440041003E003B00380029
:103190003500320030002D002A00280025002300D1
:1031A00021001F001D001A00190017001500130050
:1031B000110010000E000D000C000A0009000800AC
:1031C00007000600050004000400030002000200DE
:1031D00001000100010001000100000001000100E8
:1031E00001000100010002000200030004000400CD
:1031F000050006000700080009000A000C000D0089
:103200000E001000110013001500170019001A001D
:103210001D001F0021002300250028002A002D008A
:1032200030003200350038003B003E0041004400D1
:1032300047004B004E005100550059005C006000F3
:10324000640068006C007000740078007C008100ED
:1032500085008A008E00930098009C00A100A600C3
:10326000AB00B000B500BA00C000C500CA00D00075
:10327000D500DB00E100E700EC00F200F800FE0002
:1032800004010A01110117011D0124012A01310164
:1032900037013E0145014C015301590160016801AC
:1032A0006F0176017D0184018C0193019B01A201D4
:1032B000AA01B201BA01C101C901D101D901E101DB
:1032C000E901F101FA0102020A0213021B022402BF
:1032D0002C0235023E0246024F02580261026A0287
:1032E00073027C0285028E029802A102AA02B40235
:1032F000BD02C602D002DA02E302ED02F7020003C9
:103300000A0314031E03280332033C03460350033D
:103310005B0365036F03790384038E039903A3039F
:10332000AE03B803C303CE03D803E303EE03F903EC
:1033300004040F04190424042F043B04460451041C
:103340005C04670472047E0489049404A004AB0442
:10335000B704C204CD04D904E504F004FC04070555
:1033600013051F052B05360542054E055A05660552
:1033700071057D0589059505A105AD05B905C5054D
:10338000D105DE05EA05F60502060E061A06270631
:1033900033063F064B065806640670067C0689060F
:1033A0009506A206AE06BA06C706D306E006EC06E8
:1033B000F806050711071E072A07370743075007B6
:1033C0005C076907750782078F079B07A807B40783
:1033D000C107CD07DA07E607F307FF0FFF0FFF0F5F
:1033E000FF0FFF0FFF0FFF0FFF0FFF0FFF0FFF0F6D
:1033F000FF0FFF0FFF0FFF0FFF0FFF0FFF0FFF0F5D
:10340000FF0FFF0FFF0FFF0FFF0FFF0FFF0FFF0F4C
:10341000FF0FFF0FFF0FFF0FFF0FFF0FFF0FFF0F3C
:1037D000FF0FFF0FFF0FFF0FFF0F000000000000A3
:1037E00000000000000000000000000000000000D9
:1037F00000000000000000000000000000000000C9
:1038000000000000000000000000000000000000B8
:1038100000000000000000000000000000000000A8
:103BD0000000000000000000000011241FBECFEF15
:103BE000D8E0DEBFCDBF11E0A0E0B1E0EEE7FEE639
:103BF00002C005900D92AE31B107D9F727E0AEE1D2
:103C0000B1E001C01D92A63EB207E1F70E94B535B2
:103C10000C943D370C94000080E680937C0087E094
:103C200080937A0080917A00806880937A008091F6
:103C30007A00806480937A0080917A0086FDFCCFC0
:103C40008091790008952091A1013091A201232B48
:103C500099F480931E017093A2016093A101909149
:103C60007C00907F892B80937C0080917A00806417
:103C700080937A0081E0089580E00895E091A101A9
:103C8000F091A201309779F080917A0086FD0BC007
:103C90006091790080911E0109951092A201109205
:103CA000A10181E0089580E0089580E58CBD81E068
:103CB0008DBD08952F923F924F925F926F927F92A7
:103CC0008F929F92AF92BF92CF92DF92EF92FF922C
:103CD0000F931F93CF93DF93CDB7DEB727970FB620
:103CE000F894DEBF0FBECDBF6D83209144013091AB
:103CF00045012115310509F459C0225031092230FE
:103D0000310508F030C3E0918101F0E0EE0FFF1FB4
:103D1000EE55F44E25913491609125017091260164
:103D20004091820190E002C0880F991F4A95E2F706
:103D3000860F971FB9010E94F93590932601809351
:103D400025016091250170912601CB01A0E0B0E032
:103D5000BC01CD014AE0660F771F881F991F4A9565
:103D6000D1F740E050E00E942136309322012093A9
:103D70002101809188012091210130912201E82FB9
:103D8000F0E0FE2FEE27FF0FFF0FE20FF31FEE0F05
:103D9000FF1FE652F44E2591349185B18C7F8260ED
:103DA00085B9832F8F7080638EBDB2C290918100E0
:103DB00092FFD9C2F89420908B0130908C01E09151
:103DC0008101F0E0EE0FFF1FEE55F44EE590F49008
:103DD000E0917F01F0E0EE0FFF1FEE55F44E2591CC
:103DE00034913A83298390918301482F50E05F8377
:103DF0004E83992309F44EC12091790130917A01C3
:103E000080918B0190918C012817390709F442C1E8
:103E1000A091830120918B0130918C0180918301CD
:103E200040E051E0FA01E81BF109C0907901D0901F
:103E30007A01B0E00E9468364B015C01A0E88A0E6E
:103E4000911CA11CB11C9601DF010E947736DC0198
:103E5000CB01880D991DAA1DBB1D892F9A2FAB2F51
:103E6000BB2790937A0180937901A09183012091DF
:103E7000890130918A0180918301481B5109E091A9
:103E80007701F0917801B0E00E9468364B015C0147
:103E9000B0E88B0E911CA11CB11C9F01DA010E949D
:103EA0007736DC01CB01880D991DAA1DBB1D892F1A
:103EB0009A2FAB2FBB2790937801809377012090A6
:103EC000790130907A01A0907901B0907A018091C7
:103ED000790190917A0140917701509178015C834A
:103EE0004B838090770190907801C12C0CE0D02E0C
:103EF000B6010E94F935FC01EE0FFF1FEE57FF4F90
:103F000025913491C401B6010E94F935FC01EE0FF0
:103F1000FF1FEE57FF4F8590949040907301509093
:103F200074016090750170907601AE81BF810E942E
:103F300068368B019C01C501B6010E94F935D90193
:103F4000C80104C0880F991FAA1FBB1F6A95D2F72A
:103F5000480E591E6A1E7B1E4092730150927401D6
:103F6000609275017092760140906F0150907001DF
:103F700060907101709072019401AE81BF810E94C6
:103F800068364B015C018B819C81B6010E94F9353A
:103F900004C0880C991CAA1CBB1C6A95D2F7480C5B
:103FA000591C6A1C7B1C40926F01509270016092F8
:103FB000710170927201209125013091260180914A
:103FC000730190917401A0917501B09176014CE05C
:103FD000B695A795979587954A95D1F7BC01CD01E0
:103FE000620F731F811D911D54EE852E5EEE952E7E
:103FF000A12CB12CA50194010E94213670932601B9
:1040000060932501209123013091240180916F015B
:1040100090917001A0917101B09172016CE0B69520
:10402000A795979587956A95D1F7BC01CD01620F49
:10403000731F811D911DA50194010E94213670936B
:104040002401609323018091730190917401A091E8
:104050007501B09176019F70AA27BB2780937301E9
:1040600090937401A0937501B093760180916F01D4
:1040700090917001A0917101B09172019F70AA2777
:10408000BB2780936F0190937001A0937101B0934F
:1040900072012DC08091250190912601209182010D
:1040A0004E815F8102C0440F551F2A95E2F7840FAD
:1040B000951FB7010E94F935909326018093250141
:1040C0008091230190912401209180014E815F8194
:1040D00002C0440F551F2A95E2F7840F951F69818E
:1040E0007A810E94F9359093240180932301609195
:1040F000250170912601CB01A0E0B0E0BC01CD010B
:10410000EAE0660F771F881F991FEA95D1F797019C
:1041100040E050E00E94213630932201209321019B
:1041200080918501882309F452C0209185015D8129
:10413000852F90E0215002C0880F991F2A95E2F741
:1041400020912B0130912C01820F931F2091290186
:1041500030912A01AC0164E0569547956A95E1F7E4
:10416000240F351F30932A01209329018F7099273E
:1041700090932C0180932B012091270130912801ED
:104180008091290190912A018217930728F4809148
:10419000000181958093000180910001882351F0F6
:1041A0008091290190912A016FE370E00E94F93516
:1041B0008B0113C08091290190912A016FE370E077
:1041C0000E94F93500E014E0061B170B06C0909121
:1041D000860180E4989F80011124609123017091F1
:1041E0002401CB01A0E0B0E0BC01CD012AE0660FC4
:1041F000771F881F991F2A95D1F7A981BA819D0140
:1042000040E050E00E942136200F311F3370309380
:10421000200120931F01809188012091210130917C
:104220002201E82FF0E0FE2FEE27FF0FFF0FE20F35
:10423000F31FEE0FFF1FE652F44E2591349180914B
:10424000870190E040910701442329F0E0911F018C
:10425000F091200108C040911F0150912001EFEF23
:10426000F3E0E41BF50B982F8827990F990FE80FBF
:10427000F91FEE0FFF1FE652F44E85919491609165
:10428000060170910501789FA001799F500D1124BE
:10429000629FC001639F900D1124840F951F13E04E
:1042A000969587951A95E1F725B12C7F226025B95F
:1042B000292F2F7020632EBD0DB407FEFDCF9EB5B4
:1042C0008EBD0DB407FEFDCF8EB585B18C7F8160AC
:1042D00085B9C10173E0969587957A95E1F7805A83
:1042E0009F4F25B12C7F226025B9292F2F70206B7D
:1042F0002EBD0DB407FEFDCF9EB58EBD0DB407FEDD
:10430000FDCF8EB585B18C7F816085B978942BC047
:104310000DB407FEFDCF8EB52EBD0DB407FEFDCF4B
:104320008EB585B18C7F816085B980918E0190E0DA
:10433000039625E0880F991F2A95E1F725B12C7F78
:10434000226025B9292F2F70206B2EBD0DB407FEDA
:10435000FDCF9EB58EBD0DB407FEFDCF8EB585B1E8
:104360008C7F816085B927960FB6F894DEBF0FBEAB
:10437000CDBFDF91CF911F910F91FF90EF90DF9014
:10438000CF90BF90AF909F908F907F906F905F90F5
:104390004F903F902F900895E0918101F0E0EE0F53
:1043A000FF1FEE55F44E25913491E0917F01F0E02E
:1043B000EE0FFF1FEE55F44E45915491A09121014F
:1043C000B09122010E946836DC01CB012AE0B6954B
:1043D000A795979587952A95D1F790932601809375
:1043E0002501A0911F01B09120019A010E94683619
:1043F000DC01CB013AE0B695A795979587953A955C
:10440000D1F79093240180932301089510922801FD
:104410001092270110922C0110922B0110922A0168
:104420001092290110922601109225011092240168
:10443000109223011092220110922101109220016A
:1044400010921F0108950F931F93CF93DF93482F6E
:104450008B012091A5053091A605C82FD0E081E001
:1044600090E002C0880F991F4A95E2F7822B932BA8
:104470009093A6058093A505F999FECF6091A505B7
:104480007091A60580E090E00E9415379E012F5F95
:104490003F4FF901EE0FFF1FEB55FA4F11830083D9
:1044A000F999FECF220F331FF901EB55FA4F6081C6
:1044B0007181CE01880F991F02960E94153787EAF5
:1044C00095E0DF91CF911F910F910C94AE306091E8
:1044D000A5057091A605282F30E041E050E0FA01D3
:1044E00002C0EE0FFF1F8A95E2F7CF0180959095ED
:1044F000862397239093A6058093A505F901EE0FD7
:10450000FF1FE654F44E85919491220F331FF90159
:10451000E955FA4F91838083F999FECF6091A50503
:104520007091A60580E090E00E94153787EA95E03B
:104530000C94AE30AF92BF92CF92DF92EF92FF9287
:104540000F931F93CF93DF93482F8B012091C705C3
:104550003091C805C82FD0E081E090E002C0880FFC
:10456000991F4A95E2F7822B932B9093C80580936D
:10457000C705F999FECF6091C7057091C80582E221
:1045800090E00E94153784E0CC0FDD1F8A95E1F79B
:104590006E0184E2C80ED11C780100E010E0CB551A
:1045A000DA4F5E01F70181917F01FE01E00FF11FFB
:1045B00084A3F999FECFF501E00FF11F64A1C601B4
:1045C0000E940737FFEFCF1ADF0A0F5F1F4F00313E
:1045D000110541F7DF91CF911F910F91FF90EF905F
:1045E000DF90CF90BF90AF9008954091C705509154
:1045F000C80521E030E0082E02C0220F331F0A94C4
:10460000E2F720953095242335233093C805209375
:10461000C70520E1829FC001112420E030E0AC01F9
:104620004B555A4FF901E80FF91FEE55F54EE4913D
:10463000DA01A20FB31F9496EC932F5F3F4F203106
:10464000310581F7F999FECF6091C7057091C805D2
:1046500082E290E00C941537CF92DF92EF92FF92B6
:104660000F931F93CF93DF93CDB7DEB72D970FB680
:10467000F894DEBF0FBECDBFCE0101967C0100E0F5
:1046800010E06C01F999FECFC80188519C4F0E943F
:10469000EF36F70181937F010F5F1F4F0D3011053A
:1046A00089F74DE050E06FE071E0C6010E94E1360D
:1046B000892B59F100E010E0F999FECF60E0C801C4
:1046C0000E9407370F5F1F4F083EF3E01F07A1F757
:1046D00042E050E068EE73E08FE091E00E94FD362A
:1046E0008FE0E82E81E0F82E00E010E0F999FECF8F
:1046F000F70161917F01C80188519C4F0E940737E3
:104700000F5F1F4F0D30110589F72D960FB6F894E6
:10471000DEBF0FBECDBFDF91CF911F910F91FF90F4
:10472000EF90DF90CF900895CF92DF92EF92FF92BB
:104730000F931F93CF93DF930E942C23F999FECF01
:1047400080E090E00E94F7369093A6058093A5053F
:10475000C0E0D0E002E010E0F999FECFC8010E946D
:10476000F7362196FE01EE0FFF1FEB55FA4F9183AE
:1047700080830E5F1F4F0232110571F7F999FECF4A
:1047800082E290E00E94F7369093C8058093C705B7
:10479000C12CD12C04E210E0C0E0D0E0C60124E03E
:1047A000880F991F2A95E1F7FC01EB55FA4F7F011D
:1047B000F999FECFCE01800F911F0E94EF36F701CD
:1047C000EC0FFD1F84A32196C031D10589F7005F4E
:1047D0001F4F2FEFC21AD20A043231E01307E1F65D
:1047E0004AEB5BE160E070E080E090E0C1E0D0E0A7
:1047F0002091A5053091A605DE01082E02C0AA0F62
:10480000BB1F0A94E2F72A233B23232B51F4FA011E
:1048100025913491FC01EE0FFF1FE955FA4F3183CA
:1048200020832091C7053091C8052A233B23232BE1
:10483000A1F00196605F7F4F4E5F5F4F8031910521
:10484000B9F687EA95E0DF91CF911F910F91FF9024
:10485000EF90DF90CF900C94AE3020E030E0DC01A0
:10486000E4E0AA0FBB1FEA95E1F7AB55BA4FF90197
:10487000E60FF71FEE55F54EF4908D01020F131F52
:10488000F801F4A22F5F3F4F2031310581F7D1CFDE
:1048900090913E01609528E0829FF0011124E90F7C
:1048A000F11DE751F94F608380913F018F5F809345
:1048B0003F0180913F01843050F010923F01809180
:1048C0003E0190E001968770992780933E010895FC
:1048D0002091690130916A01E3EEF6E0808381E086
:1048E0008183338322831582148208959091E30695
:1048F00098131BC02091690130916A019093E306DF
:104900008091E4068F5F8093E4068091E5069091A4
:10491000E606A901481B590B5093E8064093E706A9
:104920003093E6062093E50608950C946824909150
:10493000DB06981305C09091DC0681E0961708F419
:1049400080E008959091E306981305C09091E406E5
:1049500081E0961708F480E00895613009F447C0BB
:1049600038F0623009F482C0633009F4D6C017C150
:1049700020914001309141012130310519F1C0F001
:104980002230310551F12330310509F008C18695F7
:104990008695869580931B078091A3059091A40529
:1049A00090619093A4058093A3058BE090E0B2C042
:1049B00082958F7080930F078091A3059091A40535
:1049C000816039C082958F708F5F809310078091CE
:1049D000A3059091A40582602EC082958F7080936C
:1049E00019072091A3053091A4053460D1C020910E
:1049F0004001309141012130310511F190F0223018
:104A0000310551F12330310509F0C9C086958695ED
:104A1000869580931C072091A3053091A4053062F0
:104A2000B7C0869586958695809311078091A305DA
:104A30009091A40584609093A4058093A305AFC0D2
:104A4000982F969596959695909312072091A30589
:104A50003091A405286040C0982F969590931A072E
:104A60002091A3053091A405386036C02091400103
:104A7000309141012130310591F038F0223031057B
:104A800001F12330310579F18AC082958F708093CE
:104A900013072091A3053091A405206179C02CE46F
:104AA000829FC0011124909316078091A3059091D5
:104AB000A40580689093A4058093A30582E090E00C
:104AC00029C0982F96959695905F90931407209102
:104AD000A3053091A40520623093A4052093A3057B
:104AE00082958F7059C082958F70843020F08D3000
:104AF00018F08CE001C084E0845080931D07809101
:104B0000A3059091A40590649093A4058093A305B8
:104B10008CE090E00E94623042C0209140013091D0
:104B2000410121303105E1F088F02230310539F1C1
:104B300023303105A1F586958695869580931E07CD
:104B40002091A3053091A405306822C082958F7012
:104B5000809315072091A3053091A405206418C007
:104B600082958F708F5F809317072091A3053091F6
:104B7000A40531603093A4052093A3050EC082954F
:104B80008F70809318072091A3053091A40532609F
:104B90003093A4052093A3058F5F0E94713080910C
:104BA000A3059091A40587709927892B11F00C9487
:104BB0000D32089580910D0781110CC080910C0772
:104BC00081110AC020910B0781E090E0211106C0FD
:104BD00080E0089583E001C082E090E008951F9393
:104BE000CF93DF93182FC0916901D0916A010E9481
:104BF000DA25E9EDF6E091838083128381E08383F7
:104C0000D583C48317821682DF91CF911F910895B7
:104C1000CF93C82F0E94DA252091D9063091DA0669
:104C20002817390701F58091DB068C131CC02091F1
:104C3000690130916A018093DB068091DC068F5F09
:104C40008093DC068091DD069091DE06A901481B69
:104C5000590B5093E0064093DF063093DE06209315
:104C6000DD06CF9108958C2FCF910C94EF25CF9333
:104C7000C82F0E94DA252091D9063091DA0628172C
:104C8000390769F48091DB068C1309C080916901B2
:104C900090916A019093E2068093E10604C010921D
:104CA000E2061092E106CF91089581E090E09093A2
:104CB00045018093440185E090E00E94623080913C
:104CC0000A0781110C9483310895109245011092C6
:104CD000440180E090E00E94623080910A078111D7
:104CE0000C948331089581110AC062E00E949724D8
:104CF000882329F00E94652680E00C94EF25089512
:104D0000813099F030F08230F1F0833009F44DC0F9
:104D1000089562E080E00E949724882309F44DC042
:104D20000E94652680E00C94EF2580910E070E947A
:104D30006722E0910E07F0E0EE0FFF1FE955FA4FF2
:104D4000808191812DC020912407309125074091C9
:104D50001F0781E090E0BC0102C0660F771F4A95F3
:104D6000E2F72623372340911F07232B71F0209170
:104D700024073091250702C0880F991F4A95E2F752
:104D800080959095822393230BC020912407309126
:104D9000250702C0880F991F4A95E2F7822B932BB3
:104DA00090932507809324070895609124077091BC
:104DB000250780910E070C9423220895813079F005
:104DC00018F0833001F1089562E080E00E9497249A
:104DD0008823F9F00E94652680E00C94EF258091ED
:104DE0000E070E94F522E0910E0780E1E89FF00196
:104DF0001124E753FA4F80E1A9ECB6E001900D923F
:104E00008A95E1F7089580910E0769EC76E00C949D
:104E10009A22089582E090E09093450180934401A6
:104E200088E090E00E94623080910A07811102C000
:104E30000C946F310895CF93DF93C82FD62F862F10
:104E40000E94762464E082E00E94A224882339F044
:104E50000E940A278D2FDF91CF910C946824D130C6
:104E600001F1C0F0D330A1F5C295CF70C0930E0709
:104E7000E0910E0780E1E89FF0011124E753FA4F1B
:104E800080E1A9ECB6E001900D928A95E1F78AE005
:104E900090E01AC0C295CF70C0931F0787E090E0E2
:104EA00013C0E0911F07F0E0C295CF70E753F94FB0
:104EB000C083E0911F07F0E0E753F94F80818F5FD7
:104EC0000E94713081E090E0DF91CF910C946230CC
:104ED000DF91CF91089583E090E090934501809316
:104EE000440189E090E00E94623080910A078111BC
:104EF00002C00C946F310895CF93DF93C82FD62F43
:104F0000862F0E94762464E083E00E94A2248823F6
:104F100039F00E946B278D2FDF91CF910C9468247C
:104F2000DD23B1F0D23001F5C295CF70C0930E07EA
:104F3000E0910E07F0E0EE0FFF1FE955FA4F808178
:104F4000918190932507809324078AE090E008C020
:104F50008C2F66E10E94ED3580931F0786E090E07C
:104F6000DF91CF910C946230DF91CF910895CF9370
:104F7000DF93D82FC62F623079F482E00E94762426
:104F800063E082E00E94A224882339F10E940A276C
:104F900082E00E94682421C0633071F483E00E94A3
:104FA000762463E083E00E94A224882329F00E94F3
:104FB0006B2783E00E94682464E083E00E94A224BF
:104FC0008823E1F00E946B278C2F0E9468246C2FAD
:104FD0008D2FDF91CF910C941B2764E082E00E941B
:104FE000A224882349F30E940A2782E00E946824B1
:104FF00062E08D2FDF91CF910C947C27DF91CF91D0
:105000000895CF93DF93C82FD62F61E082E00E94EE
:10501000972481111092DC06809144019091450102
:105020008130910591F058F082309105A1F00397FD
:10503000C1F46D2F8C2FDF91CF910C941B276D2F16
:105040008C2FDF91CF910C94AD246D2F8C2FDF919D
:10505000CF910C94B7276D2F8C2FDF91CF910C94AB
:105060007C27DF91CF9108950F931F93CF93DF9308
:10507000F8948091690190916A012091DD06309148
:10508000DE06821B930B813A9F4020F08091DB0665
:105090000E94EF25809131018823B1F00E949F3555
:1050A000009132011091330120913401309135018A
:1050B000DC01CB01801B910BA20BB30B0097A4402A
:1050C000B10510F0109231017894F894C091360136
:1050D000D09137012091E9068091EA0690E0820F95
:1050E000911D2091EB06820F911D2091EC06820FFD
:1050F000911D2091ED06820F911D2091EE06820FE9
:10510000911D2091EF06820F911D2091F006820FD4
:10511000911D9E01A3E0220F331FAA95E1F7821B88
:10512000930B8830910534F4893F2FEF92078CF46C
:1051300097FD0796F3E095958795FA95E1F7C80FE7
:10514000D91F60E08C2F0E940128D0933701C093B3
:1051500036017894F894C0913801D09139012091AA
:10516000F1068091F20690E0820F911D2091F306E6
:10517000820F911D2091F406820F911D2091F5065A
:10518000820F911D2091F606820F911D2091F70646
:10519000820F911D2091F806820F911D9E01E3E080
:1051A000220F331FEA95E1F7821B930B883091059C
:1051B00034F4893F2FEF92078CF497FD079673E044
:1051C000959587957A95E1F7C80FD91F61E08C2FE7
:1051D0000E940128D0933901C09338017894F89443
:1051E000C0913A01D0913B012091F9068091FA06D5
:1051F00090E0820F911D2091FB06820F911D20915E
:10520000FC06820F911D2091FD06820F911D2091B9
:10521000FE06820F911D2091FF06820F911D2091A5
:105220000007820F911D9E0163E0220F331F6A95D4
:10523000E1F7821B930B8830910534F4893F2FEFFF
:1052400092078CF497FD079653E0959587955A95AC
:10525000E1F7C80FD91F62E08C2F0E940128D0937C
:105260003B01C0933A017894F894C0913C01D091ED
:105270003D01209101078091020790E0820F911D6E
:1052800020910307820F911D20910407820F911D29
:1052900020910507820F911D20910607820F911D15
:1052A00020910707820F911D20910807820F911D01
:1052B0009E0143E0220F331F4A95E1F7821B930BB7
:1052C0008830910534F4893F2FEF92078CF497FDD5
:1052D000079623E0959587952A95E1F7C80FD91F82
:1052E00063E08C2F0E940128D0933D01C0933C01C4
:1052F0007894DF91CF911F910F910895809146018D
:105300008F5F8093460190914601809148019817E4
:1053100010F0109246018091460190914A01890F48
:105320008F7380934701089580E090E041E050E062
:105330006FEF2091A3053091A405FA01082E02C059
:10534000EE0FFF1F0A94E2F72E233F23232B81F059
:1053500030914701FC01E15FF84F2081FC0170E1D1
:10536000379FE00DF11D1124ED55FE4F20830BC03A
:1053700020914701FC0130E1239FE00DF11D112434
:10538000ED55FE4F608301968031910591F6809135
:105390004801803428F4809148018F5F8093480150
:1053A0008091470190E001968F7399278093470180
:1053B00008954FEF90914801981728F520E030E0CC
:1053C00090914701F90150E1959FE00DF11D1124E5
:1053D000ED55FE4F40832F5F3F4F2031310581F760
:1053E00090914801903428F4909148019F5F9093E8
:1053F00048012091470130E02F5F3F4F2F73332743
:1054000020934701D7CF08958091470180934A01A7
:105410001092480181E08093090708958091470127
:1054200080934901809149012091480190E0821BBD
:10543000910997FD805C80934A01109209070895B5
:10544000CF92DF92EF92FF920F931F93CF93813011
:10545000B9F030F0823081F1833009F47DC0D4C0DE
:1054600081E080930B0765E080E00E949724882309
:1054700009F4CCC00E94552680E00E94EF25C6C0EA
:1054800020914001309141012130310591F038F0F7
:105490002230310509F0BAC080930D07B7C0809162
:1054A0000A07882319F00E948331B0C00E946F312F
:1054B000ADC00E948F31AAC08091400190914101FE
:1054C000019791F462E082E00E949724882329F0FA
:1054D0008091DC060E94DE319BC081E00E94DE31BB
:1054E00082E00E94EF2594C0C1E0C0930C070E94A7
:1054F0009F3520913101223021F500913201109128
:10550000330120913401309135016B017C01C01AC7
:10551000D10AE20AF30AC0922007D0922107E09252
:105520002207F09223070091200710912107209174
:10553000220730912307011511052440310518F089
:1055400065C0C09331016093320170933301809341
:105550003401909335015CC08091400190914101EC
:10556000019731F58091420190914301813091057D
:1055700091F040F0029709F049C010924301109257
:10558000420111C082E090E0909343018093420178
:1055900084E090E00AC040E054E06FEF70E083EAFE
:1055A00091E00E94DA3683E090E00E9462302EC0E3
:1055B0008091400190914101892B41F5809109072B
:1055C000811117C08091420190914301892B41F4D0
:1055D00040E054E06FEF70E083EA91E00E94DA3639
:1055E00081E090E090934301809342010E94042A5D
:1055F0000DC082E090E090934301809342011092AD
:1056000046010E940E2A02C0823011F01092310130
:105610000E94DA259093410180934001CF911F9120
:105620000F91FF90EF90DF90CF9008951F93CF934D
:10563000DF93CDB7DEB72A970FB6F894DEBF0FBE63
:10564000CDBF182F8AE0E9EDF6E0DE01119601905A
:105650000D928A95E1F7812F0E94082662E0812F42
:105660000E9497248823D1F08091DF069091E00674
:10567000039750F48AE0FE013196A9EDB6E001905F
:105680000D928A95E1F747C08091DF069091E00680
:10569000813A9F4018F0812F0E94EF2580914401AC
:1056A0009091450181309105F1F088F082309105AB
:1056B00031F1039781F5812F2A960FB6F894DEBF5A
:1056C0000FBECDBFDF91CF911F910C94DE26812FAD
:1056D0002A960FB6F894DEBF0FBECDBFDF91CF91F3
:1056E0001F910C94202A812F2A960FB6F894DEBFC2
:1056F0000FBECDBFDF91CF911F910C947326812FE8
:105700002A960FB6F894DEBF0FBECDBFDF91CF91C2
:105710001F910C9480262A960FB6F894DEBF0FBE18
:10572000CDBFDF91CF911F910895CF933091480164
:10573000809110076091100720911007869590E0E6
:10574000830F911D70E00E940D36269F802D11243D
:10575000813420F090911007891BFACFC091480145
:10576000C81B90914801891768F4809348016091A3
:10577000470190914801691B860F87FD805C8093EB
:10578000470109C090914801981740F40E94D92917
:1057900080914801C80FC093460102C01092460193
:1057A00082E090E09093430180934201CF910C946A
:1057B0000E2A0F931F93CF93C82F0E943726C13014
:1057C00049F028F0C23049F0C330F1F149C01092DD
:1057D0000B0746C010920D0743C010920C07809132
:1057E00031018823E9F10E949F3500913201109127
:1057F00033012091340130913501DC01CB01801B54
:10580000910BA20BB30B8130984CA105B10518F098
:105810001092310125C080913101823089F480914C
:10582000200790912107A0912207B091230724E03F
:10583000B695A795979587952A95D1F70E94E83157
:1058400082E0809331010CC080914201909143012C
:10585000019731F480914801883010F00E94952B17
:105860000E94DA259093410180934001CF911F91CE
:105870000F9108951F920F920FB60F921124FF926D
:105880000F931F932F933F934F935F936F937F9348
:105890008F939F93AF93BF93CF93DF93EF93FF9338
:1058A000C0E0D0E0FF24F39489B190E09E012B5F2B
:1058B0003F4F02C0959587952A95E2F78E01055BCB
:1058C0001E4FF80180FD09C08081811103C08C2F1B
:1058D0000E94162BF801F08208C08081882319F0FD
:1058E0008C2F0E94D92BF80110822196C330D1054C
:1058F000D9F6FF91EF91DF91CF91BF91AF919F9139
:105900008F917F916F915F914F913F912F911F9157
:105910000F91FF900F900FBE0F901F9018951F9240
:105920000F920FB60F9211242F933F934F935F93D3
:105930006F937F938F939F93AF93BF93EF93FF9357
:1059400034991AC08091440190914501892BA1F4AA
:105950008091840090918500892B31F080918400A2
:1059600090918500C39740F080910A07811102C091
:105970000E945F310E94083535990BC080914E011D
:10598000811103C083E00E94162B81E080934E01B9
:1059900009C080914E01882319F083E00E94D92B21
:1059A00010924E01FF91EF91BF91AF919F918F9116
:1059B0007F916F915F914F913F912F910F900FBE0B
:1059C0000F901F901895CF93DF9380914801882303
:1059D00009F44DC02091A3053091A405277080E003
:1059E00090E0A1E0B0E06091A3057091A405ED0105
:1059F000082E02C0CC0FDD1F0A94E2F76C237D2332
:105A0000672B31F530914701FC0140E1349FE00DF7
:105A1000F11D1124ED55FE4F30813F3FC9F030910B
:105A20004701FC0140E1349FE00DF11D1124ED55CB
:105A3000FE4F3081FC01E15FF84F30834091A305B8
:105A40005091A4054C2B5D2B5093A4054093A305C6
:105A500001968031910539F68091A3059091A405B6
:105A60008770281721F0DF91CF910C940D32DF91D0
:105A7000CF910895CF93EFE0F7E084E08083C0E119
:105A8000C18312821382148290E49583168294E279
:105A9000978398E0908711861286138614868687EE
:105AA0001586178610924A011092490110924801FA
:105AB0001092470110924601109243011092420148
:105AC0001092410110924001E9EDF6E0118210823E
:105AD00085E0828380E2E9EEF6E0DF011D928A959F
:105AE000E9F710924B0110924C0110924D01109267
:105AF0004E011092A4051092A30540E054E06FEF10
:105B000070E083EA91E00E94DA3610920E0710925C
:105B10001F0781E090E09093250780932407E9EC2C
:105B2000F6E0DF011D92CA95E9F7CF9108958091C3
:105B30003F0168E474E20C94231E80914F01E82F2A
:105B4000F0E0DF01AF56BE4F9C91992349F0909150
:105B5000900198130DC080918F0181111AC008C067
:105B600090919001981315C080918F01882389F03E
:105B7000EE0FFF1FEE57F54EE4918BB1E82BEBB91A
:105B8000E0914F01F0E0EE0FFF1FED57F54EE4916D
:105B9000EAB9089580915401E0914F01813130F4C8
:105BA00080915401E817D8F4F0E008C0F0E080914B
:105BB000540190E04097E817F9078CF0EE0FFF1FB3
:105BC000EE57F54EE4918BB1E82BEBB9E0914F0124
:105BD000F0E0EE0FFF1FED57F54EE491EAB908959E
:105BE000809116076CE00E94ED35E0914F01892FFE
:105BF0008695F0E090FD03C090E0099608C090E023
:105C00009C01275F3F4FE217F30721F00A96E81740
:105C1000F90789F4EE0FFF1FEE57F54EE4918BB1B3
:105C2000E82BEBB9E0914F01F0E0EE0FFF1FED57CD
:105C3000F54EE491EAB90895E0914F01E830E0F4BF
:105C4000809116076CE00E94ED3597E0981BE913F0
:105C500015C0F0E0EE0FFF1FEE57F54EE4918BB14B
:105C6000E82BEBB9E0914F01F0E0EE0FFF1FED578D
:105C7000F54EE491EAB908950C94F02D0895E09161
:105C80004F0180915101E81312C0F0E0EE0FFF1FA9
:105C9000EE57F54EE4918BB1E82BEBB9E0914F0153
:105CA000F0E0EE0FFF1FED57F54EE491EAB90895CD
:105CB000E0914F01E53011F0EB3091F4F0E0EE0FA0
:105CC000FF1FEE57F54EE4918BB1E82BEBB9E09155
:105CD0004F01F0E0EE0FFF1FED57F54EE491EAB9EA
:105CE0000895E0914F0180911F07E81309C080914A
:105CF00050018F5F8093500187FF25C0F0E012C0F4
:105D000040912407509125078E2F90E021E030E04C
:105D100002C0220F331FEA95E2F724233523232BF9
:105D200091F0FC01EE0FFF1FEE57F54EE4918BB1A1
:105D3000E82BEBB9E0914F01F0E0EE0FFF1FED57BC
:105D4000F54EE491EAB90895E0914F0180911F0763
:105D5000E8131CC08091500190E001968F73992741
:105D600080935001809794F0F0E0EE0FFF1FEE5704
:105D7000F54EE4918BB1E82BEBB9E0914F01F0E0E7
:105D8000EE0FFF1FED57F54EE491EAB908958091AB
:105D90005001803420F48F5F809350010895109259
:105DA000500180914F018B3079F4E8E9FAE1E491F8
:105DB0008BB1E82BEBB9E0914F01F0E0EE0FFF1F44
:105DC000ED57F54EE491EAB9089580915001803481
:105DD00020F48F5F809350010895109250018091BC
:105DE0004F01853079F4ECE8FAE1E4918BB1E82BCE
:105DF000EBB9E0914F01F0E0EE0FFF1FED57F54ECC
:105E0000E491EAB90895E0914F0180910E07E813FB
:105E100012C0F0E0EE0FFF1FEE57F54EE4918BB18C
:105E2000E82BEBB9E0914F01F0E0EE0FFF1FED57CB
:105E3000F54EE491EAB9089580911B0790911B07F4
:105E4000E0914F01E83020F4892F8095877006C0DB
:105E5000E830C1F0869586958695875FE81312C075
:105E6000F0E0EE0FFF1FEE57F54EE4918BB1E82BFB
:105E7000EBB9E0914F01F0E0EE0FFF1FED57F54E4B
:105E8000E491EAB90895E0911D07E43010F4E45F6D
:105E900001C0E45080914F018E1312C0F0E0EE0F6C
:105EA000FF1FEE57F54EE4918BB1E82BEBB9E09173
:105EB0004F01F0E0EE0FFF1FED57F54EE491EAB908
:105EC00008958091420190914301019751F480918E
:105ED0005001803120F48F5F80935001089510921B
:105EE00050011AB88BB1807E8BB9E0915501F091C9
:105EF0005601ED30F10508F0DCC0EC5CFF4F0C946E
:105F000062368091690190916A012091520130912D
:105F10005301821B930B8130924078F080914401B1
:105F200090914501029709F483C0809144019091BA
:105F30004501039709F0B4C08AC00E94CA2DB9C0B8
:105F40008091690190916A01209152013091530131
:105F5000821B930B8130924008F0A2C00E941C2E3D
:105F6000A8C08091690190916A01209152013091FD
:105F70005301821B930B813022E0920708F090C0FE
:105F800035E0969587953A95E1F79FE0981B892F24
:105F900014C08091690190916A0120915201309161
:105FA0005301821B930B813022E0920708F078C0E6
:105FB00025E0969587952A95E1F7809351010E94F7
:105FC0003F2E77C00E94582E74C080916901909135
:105FD0006A012091520130915301821B930B813051
:105FE0009240A8F50E94E52E64C0809169019091CD
:105FF0006A012091520130915301821B930B813031
:106000009240B0F40E94C72E54C0809169019091D3
:106010006A012091520130915301821B930B813010
:106020009240F0F08091440190914501029749F42B
:1060300086E090E090935601809355010E94712E66
:1060400038C08091440190914501039791F587E014
:1060500090E090935601809355010E94A42E29C090
:106060000E94032F26C08091690190916A012091BE
:10607000520130915301821B930B8130924080F486
:106080000E941C2F16C08091690190916A01209195
:10609000520130915301821B930B8130924038F0B2
:1060A00010925601109255010E949D2D02C00E942F
:1060B000432F80914F0190E001968F709927809334
:1060C0004F0108959093560180935501892B41F01B
:1060D0008091690190916A019093530180935201DC
:1060E000089521E030E030935601209355018093CC
:1060F00054018091690190916A01909353018093BA
:10610000520108951AB880EE8BB99FE294B917B87E
:1061100090E298B92A9A96E09093680090E3909361
:106120006C0080936D00089580B7806880BF0E94E6
:1061300082300E943A2D0E940C1E0E94551E0C9423
:106140009423FC01369642962191203829F0E817D5
:10615000F907D1F781E0089580E008958F929F922A
:10616000AF92BF92CF92DF92EF92FF920F931F9365
:10617000CF93DF93CDB7DEB768970FB6F894DEBF45
:106180000FBECDBF7C0100E010E0CE0101965C01A6
:10619000CC24C394D12C98E1992E2CE0822E48E196
:1061A00050E060E87FEFC5010E94DA36FE01739689
:1061B00020E030E060E0D7018D919C91A601022E95
:1061C00002C0440F551F0A94E2F784239523892BBC
:1061D00081F0DF011C972C932630310520F48CE0F0
:1061E000820F808305C0DF01589784EF820F8C9364
:1061F00061E02F5F3F4F31962C303105E1F66111A0
:106200000DC0F501892D11928A95E9F707C02191FA
:10621000203869F4019688319105C9F7C5010E94BB
:10622000A13081111CC0F50180E090E0F0CF8731F2
:10623000910521F03081303809F42083009751F323
