:100000000C94E2210C94FF210C94FF210C94812E7E
:100010000C94B9310C9464310C94FF210C94FF21A1
:100020000C94FF210C94683C0C94FF210C943E3CF2
:100030000C94FF210C94FF210C94FF210C94FF21C0
:100040000C94363C0C94FF210C94FF210C94FF215E
:100050000C94FF210C94FF210C94FF210C94FF21A0
:100060000C94FF210C94FF21C235DE34FD340E3593
:1000700026353F3565358B35523542356B359135F3
:10008000A135B135251126112711281129112A1161
:100090002B112C112D112E112F1130113111321164
:1000A00033113411351136113711381139113A1114
:1000B0003B113C113D113E113F11401141114211C4
:1000C00043114411451146114711481149114A1174
:1000D0004B114C114D114E114F1150115111521124
:1000E00053115411551156115711581159115A11D4
:1000F0005B115C115D115E115F1160116111621184
:1001000063116411651166116711681169116A1133
:100110006B116C116D116E116F11701171117211E3
:1001200073117411751176117711781179117A1193
:100130007B117C117D117E117F1180118111821143
:100140008311841185118611871189118A118B11F0
:100150008C118D118E118F1190119111921193119B
:100160009411951196119711981199119A119B114B
:100170009C119D119E119F11A011A111A211A311FB
:10018000A411A511A611A711A811A911AA11AB11AB
:10019000AC11AD11AE11AF11B011B111B211B3115B
:1001A000B411B511B611B711B811B911BA11BB110B
:1001B000BC11BD11BF11C011C111C211C311C411B5
:1001C000C511C611C711C811C911CA11CB11CC1163
:1001D000CD11CE11CF11D011D111D211D311D41113
:1001E000D511D611D711D811D911DA11DB11DC11C3
:1001F000DD11DE11DF11E011E111E311E411E51170
:10020000E611E711E811E911EA11EB11EC11ED111A
:10021000EE11EF11F011F111F211F311F411F511CA
:10022000F611F711F811F911FA11FB11FC11FD117A
:10023000FE1100120112021203120412051206121C
:100240000712081209120A120B120C120D120E12CA
:100250000F1210121112121213121412151216127A
:10026000181219121A121B121C121D121E121F1222
:1002700020122112221223122412251226122712D2
:10028000281229122A122B122C122E122F1230127F
:10029000311232123312341235123612371238122A
:1002A00039123A123B123C123D123E123F124012DA
:1002B0004212431244124512461247124812491282
:1002C0004A124B124C124D124E124F125012511232
:1002D00052125312551256125712581259125A12DC
:1002E0005B125C125D125E125F126012611262128A
:1002F0006312641265126712681269126A126B1235
:100300006C126D126E126F127012711272127312E1
:10031000741275127712781279127A127B127C128B
:100320007D127E127F128012811282128312841239
:1003300085128712881289128A128B128C128D12E2
:100340008E128F1290129112921293129412961290
:100350009712981299129A129B129C129D129E1239
:100360009F12A012A112A212A412A512A612A712E5
:10037000A812A912AA12AB12AC12AD12AE12AF1291
:10038000B012B212B312B412B512B612B712B8123A
:10039000B912BA12BB12BC12BD12BF12C012C112E6
:1003A000C212C312C412C512C612C712C812C91291
:1003B000CA12CC12CD12CE12CF12D012D112D2123A
:1003C000D312D412D512D612D712D912DA12DB12E6
:1003D000DC12DD12DE12DF12E012E112E212E31291
:1003E000E512E612E712E812E912EA12EB12EC1239
:1003F000ED12EE12EF12F112F212F312F412F512E4
:10040000F612F712F812F912FA12FC12FD12FE128D
:10041000FF12001301130213031304130513071330
:10042000081309130A130B130C130D130E130F13D8
:100430001013121313131413151316131713181381
:1004400019131A131B131D131E131F13201321132B
:1004500022132313241325132613281329132A13D5
:100460002B132C132D132E132F133013321333137E
:100470003413351336133713381339133A133C1327
:100480003D133E133F1340134113421343134413D0
:1004900046134713481349134A134B134C134D1378
:1004A0004E13501351135213531354135513561321
:1004B000571359135A135B135C135D135E135F13C9
:1004C0006013611363136413651366136713681372
:1004D00069136A136C136D136E136F13701371131A
:1004E00072137313751376137713781379137A13C2
:1004F0007B137C137E137F1380138113821383136A
:10050000841385138713881389138A138B138C1311
:100510008D138E13901391139213931394139513B9
:100520009613971399139A139B139C139D139E1361
:100530009F13A113A213A313A413A513A613A71308
:10054000A813AA13AB13AC13AD13AE13AF13B013B0
:10055000B213B313B413B513B613B713B813BA1356
:10056000BB13BC13BD13BE13BF13C013C213C313FD
:10057000C413C513C613C713C813CA13CB13CC13A4
:10058000CD13CE13CF13D013D213D313D413D5134B
:10059000D613D713D813DA13DB13DC13DD13DE13F2
:1005A000DF13E013E213E313E413E513E613E71399
:1005B000E813EA13EB13EC13ED13EE13EF13F1133F
:1005C000F213F313F413F513F613F713F913FA13E5
:1005D000FB13FC13FD13FE13001401140214031487
:1005E000041405140614081409140A140B140C142A
:1005F0000D140F14101411141214131414141614CF
:100600001714181419141A141B141D141E141F1473
:10061000201421142214231425142614271428141A
:1006200029142A142C142D142E142F1430143114C0
:100630003314341435143614371438143A143B1464
:100640003C143D143E143F1441144214431444140A
:1006500045144614481449144A144B144C144E14AF
:100660004F14501451145214531455145614571453
:10067000581459145A145C145D145E145F146014F9
:1006800061146314641465146614671469146A149D
:100690006B146C146D146E14701471147214731442
:1006A000741476147714781479147A147B147D14E6
:1006B0007E147F148014811483148414851486148A
:1006C000871488148A148B148C148D148E1490142F
:1006D00091149214931494149614971498149914D2
:1006E0009A149C149D149E149F14A014A114A31476
:1006F000A414A514A614A714A914AA14AB14AC141A
:10070000AD14AF14B014B114B214B314B514B614BC
:10071000B714B814B914BB14BC14BD14BE14BF1460
:10072000C114C214C314C414C514C714C814C91402
:10073000CA14CB14CD14CE14CF14D014D114D314A6
:10074000D414D514D614D714D914DA14DB14DC1449
:10075000DD14DF14E014E114E214E314E514E614EC
:10076000E714E814E914EB14EC14ED14EE14EF1490
:10077000F114F214F314F414F614F714F814F91431
:10078000FA14FC14FD14FE14FF14001502150315D1
:10079000041505150715081509150A150B150D156E
:1007A0000E150F1510151115131514151515161511
:1007B000181519151A151B151C151E151F152015B2
:1007C00021152315241525152615271529152A1554
:1007D0002B152C152E152F153015311532153415F6
:1007E00035153615371539153A153B153C153D1598
:1007F0003F15401541154215441545154615471539
:1008000048154A154B154C154D154F1550155115DA
:100810005215541555155615571559155A155B157A
:100820005C155D155F15601561156215641565151C
:100830006615671569156A156B156C156E156F15BC
:10084000701571157215741575157615771579155E
:100850007A157B157C157E157F15801581158315FE
:10086000841585158615881589158A158B158D159E
:100870008E158F159015921593159415951596153F
:10088000981599159A159B159D159E159F15A015E0
:10089000A215A315A415A515A715A815A915AA1580
:1008A000AC15AD15AE15AF15B115B215B315B5151F
:1008B000B615B715B815BA15BB15BC15BD15BF15BE
:1008C000C015C115C215C415C515C615C715C9155E
:1008D000CA15CB15CC15CE15CF15D015D115D315FE
:1008E000D415D515D615D815D915DA15DC15DD159D
:1008F000DE15DF15E115E215E315E415E615E7153C
:10090000E815E915EB15EC15ED15EE15F015F115DB
:10091000F215F415F515F615F715F915FA15FB1579
:10092000FC15FE15FF150016021603160416051613
:100930000716081609160A160C160D160E161016AE
:1009400011161216131615161616171618161A164D
:100950001B161C161E161F162016211623162416EB
:1009600025162616281629162A162C162D162E168A
:100970002F16311632163316351636163716381628
:100980003A163B163C163E163F16401641164316C5
:10099000441645164716481649164A164C164D1663
:1009A0004E16501651165216531655165616571601
:1009B00059165A165B165C165E165F16601662169E
:1009C0006316641666166716681669166B166C163B
:1009D0006D166F16701671167216741675167616D9
:1009E000781679167A167C167D167E167F16811675
:1009F0008216831685168616871689168A168B1612
:100A00008C168E168F1690169216931694169616AE
:100A1000971698169A169B169C169D169F16A0164A
:100A2000A116A316A416A516A716A816A916AB16E6
:100A3000AC16AD16AE16B016B116B216B416B51683
:100A4000B616B816B916BA16BC16BD16BE16C0161E
:100A5000C116C216C316C516C616C716C916CA16BB
:100A6000CB16CD16CE16CF16D116D216D316D51656
:100A7000D616D716D916DA16DB16DC16DE16DF16F2
:100A8000E016E216E316E416E616E716E816EA168E
:100A9000EB16EC16EE16EF16F016F216F316F41629
:100AA000F616F716F816FA16FB16FC16FE16FF16C3
:100AB00000170217031704170617071708170A1756
:100AC0000B170C170E170F171017121713171417F1
:100AD0001617171718171A171B171C171E171F178B
:100AE00020172217231724172617271728172A1726
:100AF0002B172C172E172F173017321733173417C1
:100B00003617371738173A173B173C173E173F175A
:100B100040174217431744174617471748174A17F5
:100B20004B174C174E174F1751175217531755178E
:100B30005617571759175A175B175D175E175F1728
:100B400061176217631765176617671769176A17C2
:100B50006B176D176E17701771177217741775175B
:100B60007617781779177A177C177D177E178017F5
:100B700081178317841785178717881789178B178D
:100B80008C178D178F179017911793179417961727
:100B9000971798179A179B179C179E179F17A017C0
:100BA000A217A317A517A617A717A917AA17AB1758
:100BB000AD17AE17B017B117B217B417B517B617F0
:100BC000B817B917BA17BC17BD17BF17C017C11789
:100BD000C317C417C517C717C817CA17CB17CC1721
:100BE000CE17CF17D017D217D317D517D617D717B9
:100BF000D917DA17DB17DD17DE17E017E117E21751
:100C0000E417E517E617E817E917EB17EC17ED17E8
:100C1000EF17F017F217F317F417F617F717F8177F
:100C2000FA17FB17FD17FE17FF1701180218041813
:100C300005180618081809180A180C180D180F18A6
:100C400010181118131814181618171818181A183D
:100C50001B181D181E181F182118221824182518D3
:100C60002618281829182B182C182D182F1830186A
:100C70003118331834183618371838183A183B1802
:100C80003D183E183F184118421844184518461898
:100C9000481849184B184C184E184F18501852182D
:100CA000531855185618571859185A185C185D18C3
:100CB0005E1860186118631864186518671868185A
:100CC0006A186B186C186E186F18711872187418EF
:100CD00075187618781879187B187C187D187F1885
:100CE00080188218831884188618871889188A181B
:100CF0008C188D188E1890189118931894189618AF
:100D0000971898189A189B189D189E189F18A11844
:100D1000A218A418A518A718A818A918AB18AC18D9
:100D2000AE18AF18B118B218B318B518B618B8186D
:100D3000B918BB18BC18BD18BF18C018C218C31802
:100D4000C518C618C718C918CA18CC18CD18CF1896
:100D5000D018D118D318D418D618D718D918DA182B
:100D6000DB18DD18DE18E018E118E318E418E618BF
:100D7000E718E818EA18EB18ED18EE18F018F11853
:100D8000F218F418F518F718F818FA18FB18FD18E7
:100D9000FE18FF1801190219041905190719081975
:100DA0000A190B190C190E190F1911191219141906
:100DB0001519171918191A191B191C191E191F1999
:100DC00021192219241925192719281929192B192C
:100DD0002C192E192F1931193219341935193719BF
:100DE000381939193B193C193E193F194119421953
:100DF00044194519471948194A194B194C194E19E4
:100E00004F195119521954195519571958195A1976
:100E10005B195D195E195F19611962196419651909
:100E2000671968196A196B196D196E19701971199A
:100E3000731974197619771978197A197B197D192C
:100E40007E198019811983198419861987198919BE
:100E50008A198C198D198F1990199219931994194F
:100E60009619971999199A199C199D199F19A019E2
:100E7000A219A319A519A619A819A919AB19AC1972
:100E8000AE19AF19B119B219B419B519B719B81902
:100E9000BA19BB19BC19BE19BF19C119C219C41995
:100EA000C519C719C819CA19CB19CD19CE19D01926
:100EB000D119D319D419D619D719D919DA19DC19B6
:100EC000DD19DF19E019E219E319E519E619E81946
:100ED000E919EB19EC19EE19EF19F119F219F419D6
:100EE000F519F719F819FA19FB19FD19FE19001A65
:100EF000011A031A041A061A071A091A0A1A0C1AEE
:100F00000D1A0F1A101A121A131A151A161A181A7D
:100F1000191A1B1A1C1A1E1A1F1A211A221A241A0D
:100F2000251A271A281A2A1A2B1A2D1A2E1A301A9D
:100F3000311A331A341A361A381A391A3B1A3C1A2B
:100F40003E1A3F1A411A421A441A451A471A481AB9
:100F50004A1A4B1A4D1A4E1A501A511A531A541A49
:100F6000561A571A591A5A1A5C1A5D1A5F1A611AD8
:100F7000621A641A651A671A681A6A1A6B1A6D1A65
:100F80006E1A701A711A731A741A761A771A791AF5
:100F90007A1A7C1A7E1A7F1A811A821A841A851A82
:100FA000871A881A8A1A8B1A8D1A8E1A901A911A11
:100FB000931A951A961A981A991A9B1A9C1A9E1A9D
:100FC0009F1AA11AA21AA41AA51AA71AA91AAA1A2C
:100FD000AC1AAD1AAF1AB01AB21AB31AB51AB61AB9
:100FE000B81AB91ABB1ABD1ABE1AC01AC11AC31A46
:100FF000C41AC61AC71AC91ACA1ACC1ACE1ACF1AD4
:10100000D11AD21AD41AD51AD71AD81ADA1ADC1A5F
:10101000DD1ADF1AE01AE21AE31AE51AE61AE81AEC
:10102000EA1AEB1AED1AEE1AF01AF11AF31AF41A78
:10103000F61AF81AF91AFB1AFC1AFE1AFF1A011B03
:10104000021B041B061B071B091B0A1B0C1B0D1B89
:101050000F1B101B121B141B151B171B181B1A1B15
:101060001B1B1D1B1F1B201B221B231B251B261BA1
:10107000281B2A1B2B1B2D1B2E1B301B311B331B2C
:10108000351B361B381B391B3B1B3C1B3E1B401BB7
:10109000411B431B441B461B471B491B4B1B4C1B43
:1010A0004E1B4F1B511B521B541B561B571B591BCE
:1010B0005A1B5C1B5E1B5F1B611B621B641B651B59
:1010C000671B691B6A1B6C1B6D1B6F1B701B721BE4
:1010D000741B751B771B781B7A1B7C1B7D1B7F1B6E
:1010E000801B821B841B851B871B881B8A1B8B1BF9
:1010F0008D1B8F1B901B921B931B951B971B981B83
:101100009A1B9B1B9D1B9F1BA01BA21BA31BA51B0C
:10111000A71BA81BAA1BAB1BAD1BAF1BB01BB21B95
:10112000B31BB51BB71BB81BBA1BBB1BBD1BBF1B1F
:10113000C01BC21BC31BC51BC71BC81BCA1BCB1BA9
:10114000CD1BCF1BD01BD21BD31BD51BD71BD81B32
:10115000DA1BDB1BDD1BDF1BE01BE21BE41BE51BBB
:10116000E71BE81BEA1BEC1BED1BEF1BF01BF21B44
:10117000F41BF51BF71BF91BFA1BFC1BFD1BFF1BCC
:10118000011C021C041C051C071C091C0A1C0C1C4D
:101190000E1C0F1C111C121C141C161C171C191CD5
:1011A0001B1C1C1C1E1C1F1C211C231C241C261C5D
:1011B000281C291C2B1C2C1C2E1C301C311C331CE5
:1011C000351C361C381C391C3B1C3D1C3E1C401C6D
:1011D000421C431C451C461C481C4A1C4B1C4D1CF5
:1011E0004F1C501C521C541C551C571C581C5A1C7C
:1011F0005C1C5D1C5F1C611C621C641C661C671C03
:10120000691C6B1C6C1C6E1C6F1C711C731C741C89
:10121000761C781C791C7B1C7D1C7E1C801C821C0F
:10122000831C851C861C881C8A1C8B1C8D1C8F1C97
:10123000901C921C941C951C971C991C9A1C9C1C1D
:101240009E1C9F1CA11CA31CA41CA61CA71CA91CA3
:10125000AB1CAC1CAE1CB01CB11CB31CB51CB61C2A
:10126000B81CBA1CBB1CBD1CBF1CC01CC21CC41CAF
:10127000C51CC71CC91CCA1CCC1CCE1CCF1CD11C35
:10128000D31CD41CD61CD81CD91CDB1CDD1CDE1CBA
:10129000E01CE21CE31CE51CE71CE81CEA1CEC1C3F
:1012A000ED1CEF1CF11CF21CF41CF61CF71CF91CC5
:1012B000FB1CFC1CFE1C001D011D031D051D061D45
:1012C000081D0A1D0B1D0D1D0F1D111D121D141DC6
:1012D000161D171D191D1B1D1C1D1E1D201D211D4A
:1012E000231D251D261D281D2A1D2B1D2D1D2F1DCF
:1012F000301D321D341D361D371D391D3B1D3C1D53
:101300003E1D401D411D431D451D461D481D4A1DD6
:101310004C1D4D1D4F1D511D521D541D561D571D59
:10132000591D5B1D5C1D5E1D601D621D631D651DDD
:10133000671D681D6A1D6C1D6D1D6F1D711D731D60
:10134000741D761D781D791D7B1D7D1D7E1D801DE4
:10135000821D841D851D871D891D8A1D8C1D8E1D66
:101360008F1D911D931D951D961D981D9A1D9B1DEA
:101370009D1D9F1DA11DA21DA41DA61DA71DA91D6C
:10138000AB1DAD1DAE1DB01DB21DB31DB51DB71DEE
:10139000B91DBA1DBC1DBE1DBF1DC11DC31DC51D70
:1013A000C61DC81DCA1DCB1DCD1DCF1DD11DD21DF3
:1013B000D41DD61DD81DD91DDB1DDD1DDE1DE01D74
:1013C000E21DE41DE51DE71DE91DEB1DEC1DEE1DF5
:1013D000F01DF11DF31DF51DF71DF81DFA1DFC1D77
:1013E000FE1DFF1D011E031E051E061E081E0A1EF1
:1013F0000B1E0D1E0F1E111E121E141E161E181E71
:10140000191E1B1E1D1E1F1E201E221E241E261EF0
:10141000271E291E2B1E2C1E2E1E301E321E331E72
:10142000351E371E391E3A1E3C1E3E1E401E411EF2
:10143000431E451E471E481E4A1E4C1E4E1E4F1E72
:10144000511E531E551E561E581E5A1E5C1E5D1EF2
:101450005F1E611E631E641E661E681E6A1E6B1E72
:101460006D1E6F1E711E731E741E761E781E7A1EF0
:101470007B1E7D1E7F1E811E821E841E861E881E70
:10148000891E8B1E8D1E8F1E901E921E941E961EF0
:10149000981E991E9B1E9D1E9F1EA01EA21EA41E6E
:1014A000A61EA71EA91EAB1EAD1EAF1EB01EB21EED
:1014B000B41EB61EB71EB91EBB1EBD1EBF1EC01E6B
:1014C000C21EC41EC61EC71EC91ECB1ECD1ECF1EE9
:1014D000D01ED21ED41ED61ED71ED91EDB1EDD1E68
:1014E000DF1EE01EE21EE41EE61EE71EE91EEB1EE6
:1014F000ED1EEF1EF01EF21EF41EF61EF81EF91E63
:10150000FB1EFD1EFF1E001F021F041F061F081FDB
:10151000091F0B1F0D1F0F1F111F121F141F161F56
:10152000181F1A1F1B1F1D1F1F1F211F231F241FD2
:10153000261F281F2A1F2C1F2D1F2F1F311F331F4F
:10154000351F361F381F3A1F3C1F3E1F3F1F411FCC
:10155000431F451F471F481F4A1F4C1F4E1F501F48
:10156000511F531F551F571F591F5B1F5C1F5E1FC5
:10157000601F621F641F651F671F691F6B1F6D1F40
:101580006E1F701F721F741F761F781F791F7B1FBD
:101590007D1F7F1F811F821F841F861F881F8A1F38
:1015A0008C1F8D1F8F1F911F931F951F971F981FB3
:1015B0009A1F9C1F9E1FA01FA11FA31FA51FA71F2F
:1015C000A91FAB1FAC1FAE1FB01FB21FB41FB61FA9
:1015D000B71FB91FBB1FBD1FBF1FC11FC21FC41F25
:1015E000C61FC81FCA1FCC1FCD1FCF1FD11FD31F9F
:1015F000D51FD71FD81FDA1FDC1FDE1FE01FE21F19
:10160000E41FE51FE71FE91FEB1FED1FEF1FF01F92
:10161000F21FF41FF61FF81FFA1FFC1FFD1FFF1F0C
:10162000012003200520072008200A200C200E207E
:101630001020122014201520172019201B201D20F7
:101640001F20212022202420262028202A202C2070
:101650002E202F20312033203520372039203B20E9
:101660003C203E2040204220442046204820492063
:101670004B204D204F2051205320552057205820DB
:101680005A205C205E206020622064206520672054
:1016900069206B206D206F207120732074207620CC
:1016A00078207A207C207E20802082208320852044
:1016B000872089208B208D208F20912093209420BB
:1016C000962098209A209C209E20A020A220A32033
:1016D000A520A720A920AB20AD20AF20B120B320AA
:1016E000B420B620B820BA20BC20BE20C020C22022
:1016F000C420C520C720C920CB20CD20CF20D12099
:10170000D320D520D720D820DA20DC20DE20E0200E
:10171000E220E420E620E820EA20EB20ED20EF2084
:10172000F120F320F520F720F920FB20FD20FE20FA
:10173000002102210421062108210A210C210E2169
:101740001021122113211521172119211B211D21DF
:101750001F21212123212521272128212A212C2154
:101760002E21302132213421362138213A213C21C9
:101770003E213F21412143214521472149214B2140
:101780004D214F21512153215521572159215A21B2
:101790005C215E21602162216421662168216A2129
:1017A0006C216E217021722174217521772179219C
:1017B0007B217D217F218121832185218721892111
:1017C0008B218D218F219121922194219621982185
:1017D0009A219C219E21A021A221A421A621A821F9
:1017E000AA21AC21AE21B021B221B421B521B7216B
:1017F000B921BB21BD21BF21C121C321C521C721E1
:10180000C921CB21CD21CF21D121D321D521D72150
:10181000D921DB21DC21DE21E021E221E421E621C6
:10182000E821EA21EC21EE21F021F221F421F62138
:10183000F821FA21FC21FE210022022204220622A4
:1018400008220A220C220E220F2211221322152214
:10185000172219221B221D221F2221222322252288
:10186000272229222B222D222F22312233223522F8
:10187000372239223B223D223F2241224322452268
:10188000472249220100010001000100010001007E
:101890000100010001000100010001000100010040
:1018A0000100010001000300030003000300030026
:1018B0000300030003000300030003000300030010
:1018C00003000300010005000700070007000700F0
:1018D00007000700070007000700070007000700D0
:1018E00007000700010005000D000F000F000F00AA
:1018F0000F000F000F000F000F000F000F000F0070
:101900000F000F00010009000D001D001F001F0047
:101910001F001F001F001F001F001F001F001F00CF
:101920001F001F000100090015002D003D003F00B1
:101930003F003F003F003F003F003F003F003F00AF
:101940003F003F000100110029002D005D007D00D7
:101950007F007F007F007F007F007F007F007F008F
:101960007F007F000100110029005500AD00DD005F
:10197000FD00FF00FF00FF00FF00FF00FF00FF0071
:10198000FF00FF00010021004900A900AD006D012A
:10199000BD01FD01FF01FF01FF01FF01FF01FF018B
:1019A000FF01FF0101002100910029015501AD0156
:1019B000DD02BD03FD03FF03FF03FF03FF03FF037E
:1019C000FF03FF030100410091002901A902AD02BC
:1019D000AD05DD067D07FD07FF07FF07FF07FF07D2
:1019E000FF07FF070100410011014902A904550545
:1019F000AD066D0BDD0D7D0FFD0FFF0FFF0FFF0F10
:101A0000FF0FFF0F01008100210291042909A90A9B
:101A1000AD0AAD0DDD16BD1BFD1EFD1FFF1FFF1F17
:101A2000FF1FFF1F01008100210291082909A9144D
:101A30005515AD16AD2DDD2EBD3BFD3EFD3FFF3FE7
:101A4000FF3FFF3F010001012104910849122925B0
:101A5000A92AAD2AAD356D5BDD6EBD77FD7DFD7FBD
:101A6000FF7FFF7F01000101410811119124292905
:101A7000A9525555AD5AADADDDB6DDDD7DEFFDFDAD
:101A8000FDFFFFFF02030103040501050406020632
:101A9000080A020A080C040C101404141018081880
:101AA00010110111000102030405060708090A0BC1
:101AB0000C0D0E0F0F0E0D0C0B0A0908070605047E
:101AC0000302010000020406080A0C0E0F0E0C0AA5
:101AD000080604020F0E0C0A08060402000204069F
:101AE000080A0C0E00010204070B0D0E0F0E0D0B61
:101AF000070402010F0E0D0B07040201000102048E
:101B0000070B0D0E070301000103070B0E0F0E0B51
:101B10000908090D080C0E0F0E0C08040100010441
:101B20000807080200000001010202030304050681
:101B3000080A0C0F0F0F0F0E0E0D0D0C0C0B0A09DF
:101B40000705030000030507090A0B0C0C0D0D0E19
:101B50000E0F0F0F0F0C0A08060504030302020103
:101B600001000000000F000F000F000F000F000F1A
:101B7000000F000F0F000F000F000F000F000F00ED
:101B80000F000F00070A0602080E0700080F040BDB
:101B900005090D030805090D0701080F07000B04CF
:101BA0000A06020C01008100850085029502950A53
:101BB000B50AB50975098B01C9089909590A6D0B50
:101BC000ED07FF0F0000040008000C0010001400D7
:101BD00018001C002000240028002C0030003400D5
:101BE00038003C004000440048004C0050005400C5
:101BF00058005C006000640068006C0070007400B5
:101C000078007C008000840088008C0090009400A4
:101C100098009C00A000A400A800AC00B000B40094
:101C2000B800BC00C000C400C800CC00D000D40084
:101C3000D800DC00E000E400E800EC00F000F40074
:101C4000F800FC000001040108010C01100114015E
:101C500018011C012001240128012C01300134014C
:101C600038013C014001440148014C01500154013C
:101C700058015C016001640168016C01700174012C
:101C800078017C018001840188018C01900194011C
:101C900098019C01A001A401A801AC01B001B4010C
:101CA000B801BC01C001C401C801CC01D001D401FC
:101CB000D801DC01E001E401E801EC01F001F401EC
:101CC000F801FC010002040208020C0210021402D6
:101CD00018021C022002240228022C0230023402C4
:101CE00038023C024002440248024C0250025402B4
:101CF00058025C026002640268026C0270027402A4
:101D000078027C028002840288028C029002940293
:101D100098029C02A002A402A802AC02B002B40283
:101D2000B802BC02C002C402C802CC02D002D40273
:101D3000D802DC02E002E402E802EC02F002F40263
:101D4000F802FC020003040308030C03100314034D
:101D500018031C032003240328032C03300334033B
:101D600038033C034003440348034C03500354032B
:101D700058035C036003640368036C03700374031B
:101D800078037C038003840388038C03900394030B
:101D900098039C03A003A403A803AC03B003B403FB
:101DA000B803BC03C003C403C803CC03D003D403EB
:101DB000D803DC03E003E403E803EC03F003F403DB
:101DC000F803FC030004040408040C0410041404C5
:101DD00018041C042004240428042C0430043404B3
:101DE00038043C044004440448044C0450045404A3
:101DF00058045C046004640468046C047004740493
:101E000078047C048004840488048C049004940482
:101E100098049C04A004A404A804AC04B004B40472
:101E2000B804BC04C004C404C804CC04D004D40462
:101E3000D804DC04E004E404E804EC04F004F40452
:101E4000F804FC040005040508050C05100514053C
:101E500018051C052005240528052C05300534052A
:101E600038053C054005440548054C05500554051A
:101E700058055C056005640568056C05700574050A
:101E800078057C058005840588058C0590059405FA
:101E900098059C05A005A405A805AC05B005B405EA
:101EA000B805BC05C005C405C805CC05D005D405DA
:101EB000D805DC05E005E405E805EC05F005F405CA
:101EC000F805FC050006040608060C0610061406B4
:101ED00018061C062006240628062C0630063406A2
:101EE00038063C064006440648064C065006540692
:101EF00058065C066006640668066C067006740682
:101F000078067C068006840688068C069006940671
:101F100098069C06A006A406A806AC06B006B40661
:101F2000B806BC06C006C406C806CC06D006D40651
:101F3000D806DC06E006E406E806EC06F006F40641
:101F4000F806FC060007040708070C07100714072B
:101F500018071C072007240728072C073007340719
:101F600038073C074007440748074C075007540709
:101F700058075C076007640768076C0770077407F9
:101F800078077C078007840788078C0790079407E9
:101F900098079C07A007A407A807AC07B007B407D9
:101FA000B807BC07C007C407C807CC07D007D407C9
:101FB000D807DC07E007E407E807EC07F007F407B9
:101FC000F807FC070008040808080C0810081408A3
:101FD00018081C082008240828082C083008340891
:101FE00038083C084008440848084C085008540881
:101FF00058085C086008640868086C087008740871
:1020000078087C088008840888088C089008940860
:1020100098089C08A008A408A808AC08B008B40850
:10202000B808BC08C008C408C808CC08D008D40840
:10203000D808DC08E008E408E808EC08F008F40830
:10204000F808FC080009040908090C09100914091A
:1020500018091C092009240928092C093009340908
:1020600038093C094009440948094C0950095409F8
:1020700058095C096009640968096C0970097409E8
:1020800078097C098009840988098C0990099409D8
:1020900098099C09A009A409A809AC09B009B409C8
:1020A000B809BC09C009C409C809CC09D009D409B8
:1020B000D809DC09E009E409E809EC09F009F409A8
:1020C000F809FC09000A040A080A0C0A100A140A92
:1020D000180A1C0A200A240A280A2C0A300A340A80
:1020E000380A3C0A400A440A480A4C0A500A540A70
:1020F000580A5C0A600A640A680A6C0A700A740A60
:10210000780A7C0A800A840A880A8C0A900A940A4F
:10211000980A9C0AA00AA40AA80AAC0AB00AB40A3F
:10212000B80ABC0AC00AC40AC80ACC0AD00AD40A2F
:10213000D80ADC0AE00AE40AE80AEC0AF00AF40A1F
:10214000F80AFC0A000B040B080B0C0B100B140B09
:10215000180B1C0B200B240B280B2C0B300B340BF7
:10216000380B3C0B400B440B480B4C0B500B540BE7
:10217000580B5C0B600B640B680B6C0B700B740BD7
:10218000780B7C0B800B840B880B8C0B900B940BC7
:10219000980B9C0BA00BA40BA80BAC0BB00BB40BB7
:1021A000B80BBC0BC00BC40BC80BCC0BD00BD40BA7
:1021B000D80BDC0BE00BE40BE80BEC0BF00BF40B97
:1021C000F80BFC0B000C040C080C0C0C100C140C81
:1021D000180C1C0C200C240C280C2C0C300C340C6F
:1021E000380C3C0C400C440C480C4C0C500C540C5F
:1021F000580C5C0C600C640C680C6C0C700C740C4F
:10220000780C7C0C800C840C880C8C0C900C940C3E
:10221000980C9C0CA00CA40CA80CAC0CB00CB40C2E
:10222000B80CBC0CC00CC40CC80CCC0CD00CD40C1E
:10223000D80CDC0CE00CE40CE80CEC0CF00CF40C0E
:10224000F80CFC0C000D040D080D0C0D100D140DF8
:10225000180D1C0D200D240D280D2C0D300D340DE6
:10226000380D3C0D400D440D480D4C0D500D540DD6
:10227000580D5C0D600D640D680D6C0D700D740DC6
:10228000780D7C0D800D840D880D8C0D900D940DB6
:10229000980D9C0DA00DA40DA80DAC0DB00DB40DA6
:1022A000B80DBC0DC00DC40DC80DCC0DD00DD40D96
:1022B000D80DDC0DE00DE40DE80DEC0DF00DF40D86
:1022C000F80DFC0D000E040E080E0C0E100E140E70
:1022D000180E1C0E200E240E280E2C0E300E340E5E
:1022E000380E3C0E400E440E480E4C0E500E540E4E
:1022F000580E5C0E600E640E680E6C0E700E740E3E
:10230000780E7C0E800E840E880E8C0E900E940E2D
:10231000980E9C0EA00EA40EA80EAC0EB00EB40E1D
:10232000B80EBC0EC00EC40EC80ECC0ED00ED40E0D
:10233000D80EDC0EE00EE40EE80EEC0EF00EF40EFD
:10234000F80EFC0E000F040F080F0C0F100F140FE7
:10235000180F1C0F200F240F280F2C0F300F340FD5
:10236000380F3C0F400F440F480F4C0F500F540FC5
:10237000580F5C0F600F640F680F6C0F700F740FB5
:10238000780F7C0F800F840F880F8C0F900F940FA5
:10239000980F9C0FA00FA40FA80FAC0FB00FB40F95
:1023A000B80FBC0FC00FC40FC80FCC0FD00FD40F85
:1023B000D80FDC0FE00FE40FE80FEC0FF00FF40F75
:1023C000F80FFC0F00000F001F002F003F004F0010
:1023D0005F006F007F008F009F00AF00BF00CF0045
:1023E000DF00EF00FF000F011F012F013F014F0130
:1023F0005F016F017F018F019F01AF01BF01CF011D
:10240000DF01EF01FF010F021F022F023F024F0207
:102410005F026F027F028F029F02AF02BF02CF02F4
:10242000DF02EF02FF020F031F032F033F034F03DF
:102430005F036F037F038F039F03AF03BF03CF03CC
:10244000DF03EF03FF030F041F042F043F044F04B7
:102450005F046F047F048F049F04AF04BF04CF04A4
:10246000DF04EF04FF040F051F052F053F054F058F
:102470005F056F057F058F059F05AF05BF05CF057C
:10248000DF05EF05FF050F061F062F063F064F0667
:102490005F066F067F068F069F06AF06BF06CF0654
:1024A000DF06EF06FF060F071F072F073F074F073F
:1024B0005F076F077F078F079F07AF07BF07CF072C
:1024C000DF07EF07FF070F081F082F083F084F0817
:1024D0005F086F087F088F089F08AF08BF08CF0804
:1024E000DF08EF08FF080F091F092F093F094F09EF
:1024F0005F096F097F098F099F09AF09BF09CF09DC
:10250000DF09EF09FF090F0A1F0A2F0A3F0A4F0AC6
:102510005F0A6F0A7F0A8F0A9F0AAF0ABF0ACF0AB3
:10252000DF0AEF0AFF0A0F0B1F0B2F0B3F0B4F0B9E
:102530005F0B6F0B7F0B8F0B9F0BAF0BBF0BCF0B8B
:10254000DF0BEF0BFF0B0F0C1F0C2F0C3F0C4F0C76
:102550005F0C6F0C7F0C8F0C9F0CAF0CBF0CCF0C63
:10256000DF0CEF0CFF0C0F0D1F0D2F0D3F0D4F0D4E
:102570005F0D6F0D7F0D8F0D9F0DAF0DBF0DCF0D3B
:10258000DF0DEF0DFF0D0F0E1F0E2F0E3F0E4F0E26
:102590005F0E6F0E7F0E8F0E9F0EAF0EBF0ECF0E13
:1025A000DF0EEF0EFF0E0F0F1F0F2F0F3F0F4F0FFE
:1025B0005F0F6F0F7F0F8F0F9F0FAF0FBF0FCF0FEB
:1025C000DF0FEF0FFF0FFA0FF50FF00FEA0FE50F18
:1025D000E00FDA0FD50FD00FCA0FC50FC00FBA0F1B
:1025E000B50FB00FAA0FA50FA00F9A0F950F900F60
:1025F0008A0F850F800F7A0F750F700F6A0F650FA6
:10260000600F5A0F550F500F4A0F450F400F3A0FEA
:10261000350F300F2A0F250F200F1A0F150F100F2F
:102620000A0F050F000FFA0EF50EF00EEA0EE50E7A
:10263000E00EDA0ED50ED00ECA0EC50EC00EBA0EC2
:10264000B50EB00EAA0EA50EA00E9A0E950E900E07
:102650008A0E850E800E7A0E750E700E6A0E650E4D
:10266000600E5A0E550E500E4A0E450E400E3A0E92
:10267000350E300E2A0E250E200E1A0E150E100ED7
:102680000A0E050E000EFA0DF50DF00DEA0DE50D22
:10269000E00DDA0DD50DD00DCA0DC50DC00DBA0D6A
:1026A000B50DB00DAA0DA50DA00D9A0D950D900DAF
:1026B0008A0D850D800D7A0D750D700D6A0D650DF5
:1026C000600D5A0D550D500D4A0D450D400D3A0D3A
:1026D000350D300D2A0D250D200D1A0D150D100D7F
:1026E0000A0D050D000DFA0CF50CF00CEA0CE50CCA
:1026F000E00CDA0CD50CD00CCA0CC50CC00CBA0C12
:10270000B50CB00CAA0CA50CA00C9A0C950C900C56
:102710008A0C850C800C7A0C750C700C6A0C650C9C
:10272000600C5A0C550C500C4A0C450C400C3A0CE1
:10273000350C300C2A0C250C200C1A0C150C100C26
:102740000A0C050C000CFA0BF50BF00BEA0BE50B71
:10275000E00BDA0BD50BD00BCA0BC50BC00BBA0BB9
:10276000B50BB00BAA0BA50BA00B9A0B950B900BFE
:102770008A0B850B800B7A0B750B700B6A0B650B44
:10278000600B5A0B550B500B4A0B450B400B3A0B89
:10279000350B300B2A0B250B200B1A0B150B100BCE
:1027A0000A0B050B000BFA0AF50AF00AEA0AE50A19
:1027B000E00ADA0AD50AD00ACA0AC50AC00ABA0A61
:1027C000B50AB00AAA0AA50AA00A9B0A950A900AA5
:1027D0008B0A850A800A7B0A750A700A6B0A650AE9
:1027E000600A5B0A550A500A4B0A450A400A3B0A2E
:1027F000350A300A2B0A250A200A1B0A150A100A74
:102800000B0A050A000AFB09F509F009EB09E509BD
:10281000E009DB09D509D009CB09C509C009BB0905
:10282000B509B009AB09A509A0099B09950990094B
:102830008B09850980097B09750970096B09650990
:1028400060095B09550950094B09450940093B09D5
:10285000350930092B09250920091B09150910091B
:102860000B0905090009FB08F508F008EB08E50865
:10287000E008DB08D508D008CB08C508C008BB08AD
:10288000B508B008AB08A508A0089B0895089008F3
:102890008B08850880087B08750870086B08650838
:1028A00060085B08550850084B08450840083B087D
:1028B000350830082B08250820081B0815081008C3
:1028C0000B0805080008FB07F507F007EB07E5070D
:1028D000E007DB07D507D007CB07C507C007BB0755
:1028E000B507B007AB07A507A0079B07950790079B
:1028F0008B07850780077B07750770076B076507E0
:1029000060075B07550750074B07450740073B0724
:10291000350730072B07250720071B07150710076A
:102920000B0705070007FB06F506F006EB06E506B4
:10293000E006DB06D506D006CB06C506C006BB06FC
:10294000B506B006AB06A506A0069B069506900642
:102950008B06850680067B06750670066B06650687
:1029600060065B06550650064B06450640063B06CC
:10297000350630062B06250620061B061506100612
:102980000B0605060006FB05F505F005EB05E5055C
:10299000E005DB05D505D005CB05C505C005BB05A4
:1029A000B505B005AB05A505A0059B0595059005EA
:1029B0008B05850580057B05750570056B0565052F
:1029C00060055B05550550054B05460540053B0573
:1029D000360530052B05260520051B0516051005B7
:1029E0000B0506050005FB04F604F004EB04E60401
:1029F000E004DB04D604D004CB04C604C004BB044A
:102A0000B604B004AB04A604A0049B04960490048E
:102A10008B04860480047B04760470046B046604D3
:102A200060045B04560450044B04460440043B0419
:102A3000360430042B04260420041B04160410045E
:102A40000B0406040004FB03F603F003EB03E603A8
:102A5000E003DB03D603D003CB03C603C003BB03F1
:102A6000B603B003AB03A603A0039B039603900336
:102A70008B03860380037B03760370036B0366037B
:102A800060035B03560350034B03460340033B03C1
:102A9000360330032B03260320031B031603100306
:102AA0000B0306030003FB02F602F002EB02E60250
:102AB000E002DB02D602D002CB02C602C002BB0299
:102AC000B602B002AB02A602A0029B0296029002DE
:102AD0008B02860280027B02760270026B02660223
:102AE00060025B02560250024B02460240023B0269
:102AF000360230022B02260220021B0216021002AE
:102B00000B0206020002FB01F601F001EB01E601F7
:102B1000E001DB01D601D001CB01C601C001BB0140
:102B2000B601B001AB01A601A0019B019601900185
:102B30008B01860180017B01760170016B016601CA
:102B400060015B01560150014B01460140013B0110
:102B5000360130012B01260120011B011601100155
:102B60000B0106010001FB00F600F000EB00E6009F
:102B7000E000DB00D600D000CB00C600C000BB00E8
:102B8000B600B000AB00A600A0009B00960090002D
:102B90008B00860080007B00760070006B00660072
:102BA00060005B00560050004B00460040003B00B8
:102BB000360030002B00260020001B0016001000FD
:102BC0000B000600FF070B081808240831083D0811
:102BD0004A08560863086F087C0889089508A20807
:102BE000AE08BB08C708D408E008ED08F9080609D4
:102BF00012091E092B093709440950095C096909A2
:102C0000750982098E099A09A609B309BF09CB097A
:102C1000D709E409F009FC09080A140A200A2D0A58
:102C2000390A450A510A5D0A690A750A810A8D0A3C
:102C3000980AA40AB00ABC0AC80AD30ADF0AEB0A37
:102C4000F70A020B0E0B190B250B310B3C0B470B34
:102C5000530B5E0B6A0B750B800B8C0B970BA20B47
:102C6000AD0BB80BC30BCF0BDA0BE50BEF0BFA0B6D
:102C7000050C100C1B0C260C300C3B0C460C500C9D
:102C80005B0C650C700C7A0C850C8F0C990CA30CEA
:102C9000AE0CB80CC20CCC0CD60CE00CEA0CF40C4C
:102CA000FE0C070D110D1B0D240D2E0D380D410DC1
:102CB0004A0D540D5D0D660D700D790D820D8B0D55
:102CC000940D9D0DA60DAF0DB80DC00DC90DD20D03
:102CD000DA0DE30DEB0DF40DFC0D040E0D0E150ECB
:102CE0001D0E250E2D0E350E3D0E440E4C0E540EAF
:102CF0005C0E630E6B0E720E7A0E810E880E8F0EB6
:102D0000960E9E0EA50EAB0EB20EB90EC00EC70EDD
:102D1000CD0ED40EDA0EE10EE70EED0EF40EFA0E25
:102D2000000F060F0C0F120F170F1D0F230F290F87
:102D30002E0F340F390F3E0F440F490F4E0F530F14
:102D4000580F5D0F620F660F6B0F700F740F790FC6
:102D50007D0F820F860F8A0F8E0F920F960F9A0F9C
:102D60009E0FA20FA50FA90FAD0FB00FB30FB70F96
:102D7000BA0FBD0FC00FC30FC60FC90FCC0FCE0FB8
:102D8000D10FD40FD60FD90FDB0FDD0FDF0FE10FFF
:102D9000E40FE50FE70FE90FEB0FED0FEE0FF00F6C
:102DA000F10FF20FF40FF50FF60FF70FF80FF90F01
:102DB000FA0FFA0FFB0FFC0FFC0FFD0FFD0FFD0FBD
:102DC000FD0FFD0FFE0FFD0FFD0FFD0FFD0FFD0FA2
:102DD000FC0FFC0FFB0FFA0FFA0FF90FF80FF70FAC
:102DE000F60FF50FF40FF20FF10FF00FEE0FED0FDE
:102DF000EB0FE90FE70FE50FE40FE10FDF0FDD0F3A
:102E0000DB0FD90FD60FD40FD10FCE0FCC0FC90FB8
:102E1000C60FC30FC00FBD0FBA0FB70FB30FB00F60
:102E2000AD0FA90FA50FA20F9E0F9A0F960F920F2D
:102E30008E0F8A0F860F820F7D0F790F740F700F20
:102E40006B0F660F620F5D0F580F530F4E0F490F38
:102E5000440F3E0F390F340F2E0F290F230F1D0F74
:102E6000170F120F0C0F060F000FFA0EF40EED0ED7
:102E7000E70EE10EDA0ED40ECD0EC70EC00EB90E5F
:102E8000B20EAB0EA50E9E0E960E8F0E880E810E04
:102E90007A0E720E6B0E630E5C0E540E4C0E440EC8
:102EA0003D0E350E2D0E250E1D0E150E0D0E040EAB
:102EB000FC0DF40DEB0DE30DDA0DD20DC90DC00DB7
:102EC000B80DAF0DA60D9D0D940D8B0D820D790DD6
:102ED000700D660D5D0D540D4A0D410D380D2E0D12
:102EE000240D1B0D110D070DFE0CF40CEA0CE00C6B
:102EF000D60CCC0CC20CB80CAE0CA30C990C8F0CDD
:102F0000850C7A0C700C650C5B0C500C460C3B0C61
:102F1000300C260C1B0C100C050CFA0BEF0BE50B00
:102F2000DA0BCF0BC30BB80BAD0BA20B970B8C0BB3
:102F3000800B750B6A0B5E0B530B470B3C0B310B75
:102F4000250B190B0E0B020BF70AEB0ADF0AD30A4B
:102F5000C80ABC0AB00AA40A980A8D0A810A750A2E
:102F6000690A5D0A510A450A390A2D0A200A140A1B
:102F7000080AFC09F009E409D709CB09BF09B3091C
:102F8000A6099A098E098209750969095C0950091F
:102F9000440937092B091E0912090609F908ED0829
:102FA000E008D408C708BB08AE08A208950889083D
:102FB0007C086F08630856084A083D083108240851
:102FC00018080B08FF07F307E607DA07CD07C10764
:102FD000B407A8079B078F078207750769075C0777
:102FE0005007430737072A071E0711070507F8068A
:102FF000EC06E006D306C706BA06AE06A20695069C
:1030000089067C067006640658064B063F063306A2
:1030100027061A060E060206F605EA05DE05D105A4
:10302000C505B905AD05A105950589057D057105A0
:1030300066055A054E05420536052B051F05130585
:103040000705FC04F004E504D904CD04C204B70468
:10305000AB04A004940489047E04720467045C0435
:10306000510446043B042F04240419040F040404EF
:10307000F903EE03E303D803CE03C303B803AE039F
:10308000A30399038E03840379036F0365035B0332
:10309000500346033C03320328031E0314030A03B0
:1030A0000003F702ED02E302DA02D002C602BD021B
:1030B000B402AA02A10298028E0285027C02730267
:1030C0006A02610258024F0246023E0235022C0299
:1030D00024021B0213020A020202FA01F101E901B1
:1030E000E101D901D101C901C101BA01B201AA01AD
:1030F000A2019B0193018C0184017D0176016F0186
:1031000068016001590153014C0145013E0137013D
:1031100031012A0124011D01170111010A010401D5
:10312000FE00F800F200EC00E700E100DB00D50053
:10313000D000CA00C500C000BA00B500B000AB00A6
:10314000A600A1009C00980093008E008A008500D4
:1031500081007C007800740070006C0068006400DE
:1031600060005C005900550051004E004B004700C4
:10317000440041003E003B00380035003200300082
:103180002D002A0028002500230021001F001D001B
:103190001A001900170015001300110010000E008E
:1031A0000D000C000A0009000800070006000500D9
:1031B00004000400030002000200010001000100FD
:1031C00001000100000001000100010001000100F8
:1031D00002000200030004000400050006000700CE
:1031E000080009000A000C000D000E00100011007C
:1031F00013001500170019001A001D001F00210000
:103200002300250028002A002D0030003200350060
:1032100038003B003E004100440047004B004E0098
:103220005100550059005C006000640068006C00AB
:103230007000740078007C00810085008A008E0098
:10324000930098009C00A100A600AB00B000B50060
:10325000BA00C000C500CA00D000D500DB00E10004
:10326000E700EC00F200F800FE0004010A01110181
:1032700017011D0124012A01310137013E014501D9
:103280004C0153015901600168016F0176017D0114
:1032900084018C0193019B01A201AA01B201BA0130
:1032A000C101C901D101D901E101E901F101FA012D
:1032B00002020A0213021B0224022C0235023E0201
:1032C00046024F02580261026A0273027C028502C2
:1032D0008E029802A102AA02B402BD02C602D00266
:1032E000DA02E302ED02F70200030A0314031E03ED
:1032F000280332033C03460350035B0365036F035B
:10330000790384038E039903A303AE03B803C303B5
:10331000CE03D803E303EE03F90304040F041904F6
:1033200024042F043B04460451045C046704720423
:103330007E0489049404A004AB04B704C204CD0441
:10334000D904E504F004FC04070513051F052B054B
:10335000360542054E055A05660571057D05890548
:103360009505A105AD05B905C505D105DE05EA053B
:10337000F60502060E061A06270633063F064B061A
:103380005806640670067C0689069506A206AE06F7
:10339000BA06C706D306E006EC06F80605071107CD
:1033A0001E072A073707430750075C076907750799
:1033B00082078F079B07A807B407C107CD07DA0765
:1033C000E607F307FF0FFF0FFF0FFF0FFF0FFF0FC2
:1033D000FF0FFF0FFF0FFF0FFF0FFF0FFF0FFF0F7D
:1033E000FF0FFF0FFF0FFF0FFF0FFF0FFF0FFF0F6D
:1033F000FF0FFF0FFF0FFF0FFF0FFF0FFF0FFF0F5D
:10340000FF0FFF0FFF0FFF0FFF0FFF0FFF0FFF0F4C
:1037C000FF0FFF0F000000000000000000000000DD
:1037D00000000000000000000000000000000000E9
:1037E00000000000000000000000000000000000D9
:1037F00000000000000000000000000000000000C9
:1038000000000000000000000000000000000000B8
:103BC000000000000000990189023303B7032304B9
:103BD0007E04CC04120550058905BC05EB051706CB
:103BE000400666068A06AC06CC06EA0607072207E8
:103BF0003C0756076E0785079B07B107C507D9071E
:103C0000ED07FF0712082308340845085508650822
:103C1000740883089208A008AE08BC08C908D60832
:103C2000E308EF08FB08070913091E092A093509EB
:103C30003F094A0955095F09690973097D09860920
:103C400090099909A209AB09B409BD09C509CE09B2
:103C5000D609DF09E709EF09F709FF09060A0E0A85
:103C6000150A1D0A240A2B0A330A3A0A410A480A8D
:103C70004E0A550A5C0A620A690A6F0A760A7C0AC9
:103C8000820A890A8F0A950A9B0AA10AA70AAC0A26
:103C9000B20AB80ABD0AC30AC90ACE0AD40AD90AA6
:103CA000DE0AE40AE90AEE0AF30AF80AFD0A020B40
:103CB000070B0C0B110B160B1B0B200B240B290BEA
:103CC0002E0B330B370B3C0B400B450B490B4E0BAC
:103CD000520B560B5B0B5F0B630B670B6C0B700B84
:103CE000740B780B7C0B800B840B880B8C0B900B6C
:103CF000940B980B9C0BA00BA40BA70BAB0BAF0B5F
:103D0000B30BB60BBA0BBE0BC10BC50BC90BCC0B5F
:103D1000D00BD30BD70BDA0BDE0BE10BE40BE80B6C
:103D2000EB0BEF0BF20BF50BF90BFC0BFF0B020C83
:103D3000060C090C0C0C0F0C120C160C190C1C0C9C
:103D40001F0C220C250C280C2B0C2E0C310C340CC7
:103D5000370C3A0C3D0C400C430C460C490C4C0CF7
:103D60004E0C510C540C570C5A0C5D0C5F0C620C31
:103D7000650C680C6A0C6D0C700C720C750C780C70
:103D80007A0C7D0C800C820C850C880C8A0C8D0CB6
:103D90008F0C920C940C970C990C9C0C9E0CA10C03
:103DA000A30CA60CA80CAB0CAD0CB00CB20CB40C54
:103DB000B70CB90CBC0CBE0CC00CC30CC50CC70CAA
:103DC000CA0CCC0CCE0CD10CD30CD50CD70CDA0C05
:103DD000DC0CDE0CE00CE30CE50CE70CE90CEB0C66
:103DE000EE0CF00CF20CF40CF60CF80CFB0CFD0CC9
:103DF000FF0C010D030D050D070D090D0B0D0D0D2C
:103E0000100D120D140D160D180D1A0D1C0D1E0D92
:103E1000200D220D240D260D280D2A0D2C0D2E0D02
:103E2000300D320D330D350D370D390D3B0D3D0D78
:103E30003F0D410D430D450D470D480D4A0D4C0DED
:103E40004E0D500D520D540D550D570D590D5B0D66
:103E50005D0D5E0D600D620D640D660D670D690DE3
:103E60006B0D6D0D6E0D700D720D740D750D770D62
:103E7000790D7B0D7C0D7E0D800D810D830D850DE3
:103E8000860D880D8A0D8B0D8D0D8F0D900D920D69
:103E9000940D950D970D990D9A0D9C0D9E0D9F0DEE
:103EA000A10DA20DA40DA60DA70DA90DAA0DAC0D77
:103EB000AE0DAF0DB10DB20DB40DB50DB70DB80D02
:103EC000BA0DBC0DBD0DBF0DC00DC20DC30DC50D8E
:103ED000C60DC80DC90DCB0DCC0DCE0DCF0DD10D1E
:103EE000D20DD40DD50DD70DD80DDA0DDB0DDC0DAF
:103EF000DE0DDF0DE10DE20DE40DE50DE70DE80D42
:103F0000E90DEB0DEC0DEE0DEF0DF00DF20DF30DD7
:103F1000F50DF60DF70DF90DFA0DFC0DFD0DFE0D6D
:103F2000000E010E020E040E050E070E080E090EFD
:103F30000B0E0C0E0D0E0F0E100E110E130E140E96
:103F4000150E170E180E190E1B0E1C0E1D0E1E0E32
:103F5000200E210E220E240E250E260E280E290ECE
:103F60002A0E2B0E2D0E2E0E2F0E300E320E330E6D
:103F7000340E350E370E380E390E3A0E3C0E3D0E0D
:103F80003E0E3F0E410E420E430E440E450E470EAE
:103F9000480E490E4A0E4C0E4D0E4E0E4F0E500E50
:103FA000520E530E540E550E560E570E590E5A0EF3
:103FB0005B0E5C0E5D0E5F0E600E610E620E630E98
:103FC000640E660E670E680E690E6A0E6B0E6C0E3E
:103FD0006E0E6F0E700E710E720E730E740E750EE5
:103FE000770E780E790E7A0E7B0E7C0E7D0E7E0E8D
:103FF0007F0E810E820E830E840E850E860E870E36
:10400000880E890E8A0E8B0E8D0E8E0E8F0E900EE0
:10401000910E920E930E940E950E960E970E980E8C
:10402000990E9A0E9B0E9D0E9E0E9F0EA00EA10E37
:10403000A20EA30EA40EA50EA60EA70EA80EA90EE4
:10404000AA0EAB0EAC0EAD0EAE0EAF0EB00EB10E94
:10405000B20EB30EB40EB50EB60EB70EB80EB90E44
:10406000BA0EBB0EBC0EBD0EBE0EBF0EC00EC10EF4
:10407000C20EC30EC40EC50EC60EC70EC80EC90EA4
:10408000CA0ECB0ECC0ECD0ECE0ECF0ED00ED10E54
:10409000D20ED30ED40ED50ED60ED70ED80ED80E05
:1040A000D90EDA0EDB0EDC0EDD0EDE0EDF0EE00EBC
:1040B000E10EE20EE30EE40EE50EE60EE70EE70E6D
:1040C000E80EE90EEA0EEB0EEC0EED0EEE0EEF0E24
:1040D000F00EF10EF20EF20EF30EF40EF50EF60ED9
:1040E000F70EF80EF90EFA0EFB0EFC0EFC0EFD0E8E
:1040F000FE0EFF0E000F010F020F030F040F040F3F
:10410000050F060F070F080F090F0A0F0B0F0B0FF4
:104110000C0F0D0F0E0F0F0F100F110F110F120FAD
:10412000130F140F150F160F170F170F180F190F66
:104130001A0F1B0F1C0F1D0F1D0F1E0F1F0F200F1F
:10414000210F220F220F230F240F250F260F270FD9
:10415000270F280F290F2A0F2B0F2C0F2C0F2D0F95
:104160002E0F2F0F300F310F310F320F330F340F4F
:10417000350F350F360F370F380F390F390F3A0F0C
:104180003B0F3C0F3D0F3E0F3E0F3F0F400F410FC7
:10419000410F420F430F440F450F450F460F470F86
:1041A000480F490F490F4A0F4B0F4C0F4D0F4D0F42
:1041B0004E0F4F0F500F500F510F520F530F540F00
:1041C000540F550F560F570F570F580F590F5A0FBF
:1041D0005A0F5B0F5C0F5D0F5D0F5E0F5F0F600F7F
:1041E000600F610F620F630F630F640F650F660F3F
:1041F000660F670F680F690F690F6A0F6B0F6C0FFF
:104200006C0F6D0F6E0F6F0F6F0F700F710F720FBE
:10421000720F730F740F740F750F760F770F770F80
:10422000780F790F7A0F7A0F7B0F7C0F7C0F7D0F41
:104230007E0F7F0F7F0F800F810F810F820F830F03
:10424000840F840F850F860F860F870F880F890FC5
:10425000890F8A0F8B0F8B0F8C0F8D0F8D0F8E0F89
:104260008F0F900F900F910F920F920F930F940F4B
:10427000940F950F960F970F970F980F990F990F0F
:104280009A0F9B0F9B0F9C0F9D0F9D0F9E0F9F0FD3
:104290009F0FA00FA10FA10FA20FA30FA30FA40F99
:1042A000A50FA50FA60FA70FA70FA80FA90FA90F5E
:1042B000AA0FAB0FAB0FAC0FAD0FAD0FAE0FAF0F23
:1042C000AF0FB00FB10FB10FB20FB30FB30FB40FE9
:1042D000B50FB50FB60FB70FB70FB80FB90FB90FAE
:1042E000BA0FBB0FBB0FBC0FBD0FBD0FBE0FBE0F74
:1042F000BF0FC00FC00FC10FC20FC20FC30FC40F3B
:10430000C40FC50FC50FC60FC70FC70FC80FC90F02
:10431000C90FCA0FCB0FCB0FCC0FCC0FCD0FCE0FC9
:10432000CE0FCF0FD00FD00FD10FD10FD20FD30F91
:10433000D30FD40FD50FD50FD60FD60FD70FD80F59
:10434000D80FD90FD90FDA0FDB0FDB0FDC0FDD0F22
:10435000DD0FDE0FDE0FDF0FE00FE00FE10FE10FEB
:10436000E20FE30FE30FE40FE40FE50FE60FE60FB4
:10437000E70FE70FE80FE90FE90FEA0FEA0FEB0F7E
:10438000EC0FEC0FED0FED0FEE0FEF0FEF0FF00F47
:10439000F00FF10FF20FF20FF30FF30FF40FF50F11
:1043A000F50FF60FF60FF70FF70FF80FF90FF90FDC
:1043B000FA0FFA0FFB0FFC0FFC0FFD0FFD0FFE0FA6
:1043C000FE0FFF0F11241FBECFEFD8E0DEBFCDBF21
:1043D00011E0A0E0B1E0E4E6FCE702C005900D9238
:1043E000AE31B107D9F727E0AEE1B1E001C01D92CF
:1043F000A53FB207E1F70E94AF3C0C94303E0C940D
:10440000000080E680937C0087E080937A008091B2
:104410007A00806880937A0080917A00806480932B
:104420007A0080917A0086FDFCCF80917900089512
:104430002091A8013091A901232B99F480931E01AA
:104440007093A9016093A80190917C00907F892BC3
:1044500080937C0080917A00806480937A0081E070
:10446000089580E00895E091A801F091A9013097A6
:1044700079F080917A0086FD0BC06091790080917F
:104480001E0109951092A9011092A80181E00895DA
:1044900080E0089580E58CBD81E08DBD0895109287
:1044A0003801109237011092360110923501809137
:1044B0001D07882389F18091A20190910401891B35
:1044C000809323018091230187FF04C08091230101
:1044D000819502C080912301809322018091220165
:1044E00089311CF088E180932201209109013091EB
:1044F0000A018FEF9FEFA0E0B0E0821B930BA109B0
:10450000B1092BE0B595A795979587952A95D1F791
:104510008F5F8093210108951092210108951092D8
:104520002D0110922C011092310110923001109245
:104530002F0110922E0110922B0110922A0110923D
:104540002901109228011092270110922601109241
:1045500025011092240108952F923F924F925F926D
:104560006F927F928F929F92AF92BF92DF92EF9263
:10457000FF920F931F93CF93DF93F894D090B200E4
:10458000809120018D2C881A09F404C480911F01A8
:10459000880D80931F0180911F01282F2695269555
:1045A000269580911F0148E0249F80191124809353
:1045B0001F018091500190915101009709F48AC028
:1045C0000297029708F0E4C3E0919501F0E0FE2F16
:1045D000EE27FF0FEC57FF4FA591B4914091960144
:1045E00040908701509088016090890170908A0105
:1045F000282D30E00E94393DDC01CB0104C0880F3A
:10460000991FAA1FBB1F4A95D2F7480E591E6A1E52
:104610007B1E4092870150928801609289017092BE
:104620008A018091870190918801A0918901B091C0
:104630008A0120912A0130912B014CE0B695A79573
:10464000979587954A95D1F7820F931F90932B01E9
:1046500080932A018091870190918801A09189011E
:10466000B0918A019F70AA27BB27809387019093FE
:104670008801A0938901B0938A0180912A019091C9
:104680002B01A0E0B0E056E0B695A79597958795E9
:104690005A95D1F79093270180932601E0919C01D0
:1046A0008091260190912701F0E0FE2FEE27FF0F69
:1046B000FF0FE80FF91FEE0FFF1FEC53F44E25918B
:1046C000349185B18C7F826085B9832F8F70806330
:1046D0008EBD33C380918101882309F459C3809131
:1046E0009901882309F442C080919901422F50E03A
:1046F000815002C0440F551F8A95E2F78091300126
:1047000090913101480F591FBA0114E076956795D1
:104710001A95E1F780912E0190912F01860F971F36
:1047200090932F0180932E014F70552750933101A4
:104730004093300140912C0150912D018417950731
:1047400028F430910001319530930001309100013F
:104750006FE370E00E94EC3C332311F07B010CC04E
:1047600080E094E07C01E61AF70A06C0E0909A0126
:1047700050E4E59E7001112480912101882309F401
:1047800066C00E94F73620912101BC012603C001BA
:10479000279F900D11249C0121553E4F2115344037
:1047A00048F01092210110923401109233011092BE
:1047B00032019CC0FC01EE0FFF1FEE5DF04C8591B5
:1047C0009491FC01FE50EE0FFF1F40912201CF019A
:1047D000D4E096958795DA95E1F729E130E0241B3E
:1047E000310947FD3395280F391F40911D074F7040
:1047F0004F5F90911D078091230192959170881FC2
:104800008827881F981731F080E094E0BC016E1B68
:104810007F0BFB01EE0FFF1FEC53F44D659174917C
:1048200050E0469FC001479F900D569F900D112468
:10483000B9010E94EC3CEB01942F990F990F990F4D
:1048400080E0B9010E94EC3CC61BD70B51C080919F
:104850001C07882309F44AC080911C078F70289F89
:10486000C0011124880F991F20913201309133012A
:10487000820F931FE0913401E90FE09334019927EF
:10488000909333018093320178E0E79FF001112487
:10489000EC53F44DC591D491E4E0D695C795EA95D3
:1048A000E1F780911C0784FD1EC00E94F7368F3708
:1048B0009105C8F42FE730E0281B390B64E03695EA
:1048C00027956A95E1F7222371F0CE01B9010E9484
:1048D000003DFB0180E89FEFB9010E94003DEB0124
:1048E000CE0FDF1F05C0C058D10902C0C0E0D0E024
:1048F00080919701882309F450C020918D01309157
:104900008E0180919F019091A0012817390709F429
:1049100044C020919701A0919F01B091A001809186
:10492000970140E051E0481B5109E0918D01F09161
:104930008E0130E00E94393D2B013C0120E8420EFF
:10494000511C611C711C9F01DA010E94483DDC0171
:10495000CB01840D951DA61DB71D892F9A2FAB2F56
:10496000BB2790938E0180938D0100918D01109152
:104970008E010C0F1D1F80918D0190918E0120E002
:104980003CE0B9010E94EC3C762E80918D01909123
:104990008E01B9010E94EC3C0DC000919F01109165
:1049A000A0010C0F1D1F709096018091950190E061
:1049B000982F8827FC01EE0FFF1FEC57FF4F6591E2
:1049C000749180E090E0209749F09E010D2E000C3C
:1049D000440B550B620F731F841F951F912CA12C44
:1049E000B12C20908701309088014090890150902F
:1049F0008A01A50194010E94D03CDC01CB0104C0D6
:104A0000880F991FAA1FBB1F7A94D2F7820D931D9E
:104A1000A41DB51D8093870190938801A0938901FF
:104A2000B0938A018091870190918801A0918901BA
:104A3000B0918A0120912A0130912B01FCE0B695BA
:104A4000A79597958795FA95D1F7820F931F909325
:104A50002B0180932A018091870190918801A09178
:104A60008901B0918A019F70AA27BB278093870193
:104A700090938801A0938901B0938A0180912A01C3
:104A800090912B01A0E0B0E026E0B695A795979510
:104A900087952A95D1F790932701809326018091DD
:104AA0002D07882309F4C8C080919701882309F451
:104AB00047C020918B0130918C0180919D01909194
:104AC0009E0128173907E1F120919701A0919D01DE
:104AD000B0919E018091970140E051E0481B51093F
:104AE000E0918B01F0918C0130E00E94393D2B0167
:104AF0003C0120E8420E511C611C711C9F01DA012F
:104B00000E94483D460E571E681E791E452C562CA5
:104B1000672C772450928C0140928B0180918B01FD
:104B200090918C0120E03CE0B9010E94EC3C762E93
:104B300080918B0190918C01B9010E94EC3C07C0DF
:104B4000709094018091930190E0982F8827FC0148
:104B5000EE0FFF1FEC57FF4F6591749180E090E0DE
:104B6000209741F09E01DD0F440B550B620F731F20
:104B7000841F951F2090830130908401409085010F
:104B800050908601A50194010E94D03CDC01CB012C
:104B900004C0880F991FAA1FBB1F7A94D2F7820DF9
:104BA000931DA41DB51D8093830190938401A09350
:104BB0008501B09386018091830190918401A09139
:104BC0008501B091860120912801309129014CE0A6
:104BD000B695A795979587954A95D1F7820F931F1C
:104BE0009093290180932801809183019091840101
:104BF000A0918501B09186019F70AA27BB27809361
:104C0000830190938401A0938501B09386018091E4
:104C1000280190912901A0E0B0E056E0B695A79553
:104C2000979587955A95D1F78E0D9F1D9370909308
:104C30002501809324010CC08091260190912701C9
:104C4000E80EF91E43E0F422F0922501E0922401DF
:104C5000E0919C018091260190912701F0E0FE2FC8
:104C6000EE27FF0FFF0FE80FF91FEE0FFF1FEC53AA
:104C7000F44E25913491E0919B01F0E08091070181
:104C8000811109C040912401509125018FEF93E0DB
:104C9000841B950B04C08091240190912501FE2F67
:104CA000EE27FF0FFF0FE80FF91FEE0FFF1FEC536A
:104CB000F44E6591749180910601E0910501829F07
:104CC000A001839F500D1124E69FC001E79F900D26
:104CD0001124840F951FC3E096958795CA95E1F737
:104CE00025B12C7F226025B9292F2F7020632EBD7E
:104CF0000DB407FEFDCF9EB58EBD0DB407FEFDCFF2
:104D00008EB585B18C7F816085B9E3E016950795F6
:104D1000EA95E1F7005A1F4F85B18C7F826085B913
:104D2000812F8F70806B8EBD0DB407FEFDCF8EB5C9
:104D30000EBD0DB407FEFDCF26C00DB407FEFDCF9E
:104D40008EB52EBD0DB407FEFDCF8EB585B18C7F1F
:104D5000816085B98091A20190E0039625E0880FDB
:104D6000991F2A95E1F725B12C7F226025B9292FBB
:104D70002F70206B2EBD0DB407FEFDCF9EB58EBDEE
:104D80000DB407FEFDCF8EB585B18C7F816085B9EE
:104D9000D09220017894DF91CF911F910F91FF90D5
:104DA000EF90DF90BF90AF909F908F907F906F902B
:104DB0005F904F903F902F9008950F931F93CF9344
:104DC000DF93482F8B012091AC053091AD05C82FA2
:104DD000D0E081E090E002C0880F991F4A95E2F789
:104DE000822B932B9093AD058093AC05F999FECF60
:104DF0006091AC057091AD0580E090E00E94133E9B
:104E00009E012F5F3F4FF901EE0FFF1FE455FA4F50
:104E100011830083F999FECF220F331FF901E45566
:104E2000FA4F60817181CE01880F991F02960E940E
:104E3000133E8EEA95E0DF91CF911F910F910C9474
:104E400031366091AC057091AD05282F30E041E01E
:104E500050E0FA0102C0EE0FFF1F8A95E2F7CF0182
:104E600080959095862397239093AD058093AC050C
:104E7000F901EE0FFF1FEC55F44E85919491220F2E
:104E8000331FF901E255FA4F91838083F999FECFE0
:104E90006091AC057091AD0580E090E00E94133EFA
:104EA0008EEA95E00C943136AF92BF92CF92DF92AA
:104EB000EF92FF920F931F93CF93DF93482F8B01B5
:104EC0002091CE053091CF05C82FD0E081E090E051
:104ED00002C0880F991F4A95E2F7822B932B90937B
:104EE000CF058093CE05F999FECF6091CE057091E4
:104EF000CF0582E290E00E94133E84E0CC0FDD1FDC
:104F00008A95E1F76E0184E2C80ED11C780100E0B9
:104F100010E0C455DA4F5E01F70181917F01FE0177
:104F2000E00FF11F84A3F999FECFF501E00FF11F07
:104F300064A1C6010E94053EFFEFCF1ADF0A0F5F92
:104F40001F4F0031110541F7DF91CF911F910F9154
:104F5000FF90EF90DF90CF90BF90AF900895409179
:104F6000CE055091CF0521E030E0082E02C0220F7F
:104F7000331F0A94E2F7209530952423352330938C
:104F8000CF052093CE0520E1829FC001112420E0AF
:104F900030E0AC0144555A4FF901E80FF91FEC55C8
:104FA000F54EE491DA01A20FB31F9496EC932F5FB4
:104FB0003F4F2031310581F7F999FECF6091CE0541
:104FC0007091CF0582E290E00C94133ECF92DF9275
:104FD000EF92FF920F931F93CF93DF93CDB7DEB77E
:104FE0002D970FB6F894DEBF0FBECDBFCE01019650
:104FF0007C0108EE13E06C01F999FECFC8010E9414
:10500000ED3DF70181937F010F5F1F4F053FF3E0F7
:105010001F0791F74DE050E06FE071E0C6010E947C
:10502000DF3D892B51F100E010E0F999FECF60E0FF
:10503000C8010E94053E0F5F1F4F083E83E018071E
:10504000A1F742E050E068EE73E08FE091E00E944B
:10505000FB3D8FE0E82E81E0F82E08EE13E0F99991
:10506000FECFF70161917F01C8010E94053E0F5FED
:105070001F4F053FF3E01F0791F72D960FB6F894E9
:10508000DEBF0FBECDBFDF91CF911F910F91FF907B
:10509000EF90DF90CF900895CF92DF92EF92FF9242
:1050A0000F931F93CF93DF930E94E627F999FECFCA
:1050B00080E090E00E94F53D9093AD058093AC05B3
:1050C000C0E0D0E002E010E0F999FECFC8010E94F4
:1050D000F53D2196FE01EE0FFF1FE455FA4F918337
:1050E00080830E5F1F4F0232110571F7F999FECFD1
:1050F00082E290E00E94F53D9093CF058093CE052B
:10510000C12CD12C04E210E0C0E0D0E0C60124E0C4
:10511000880F991F2A95E1F7FC01E455FA4F7F01AA
:10512000F999FECFC8018C0F9D1F0E94ED3DF7013C
:10513000EC0FFD1F84A32196C031D10589F7005FD4
:105140001F4F2FEFC21AD20A043231E01307E1F6E3
:1051500044EA5BE160E070E080E090E0C1E0D0E034
:105160002091AC053091AD05DE01082E02C0AA0FDA
:10517000BB1F0A94E2F72A233B23232B51F4FA01A5
:1051800025913491FC01EE0FFF1FE255FA4F318358
:1051900020832091CE053091CF052A233B23232B5A
:1051A000A1F00196605F7F4F4E5F5F4F80319105A8
:1051B000B9F68EEA95E0DF91CF911F910F91FF90A4
:1051C000EF90DF90CF900C94313620E030E0DC019E
:1051D000E4E0AA0FBB1FEA95E1F7A455BA4FF90125
:1051E000E60FF71FEC55F54EF4908D01020F131FDB
:1051F000F801F4A22F5F3F4F2031310581F7D1CF65
:1052000090914A01609528E0829FF0011124E051BD
:10521000F94FE90FF11D608380914B018F5F8093FF
:105220004B0180914B01843050F010924B018091E2
:105230004A0190E001968770992780934A0108956A
:1052400020917B0130917C01EAEEF6E0808381E0E1
:105250008183338322831582148208959091EA0614
:1052600098131BC020917B0130917C019093EA063A
:105270008091EB068F5F8093EB068091EC06909116
:10528000ED06A901481B590B5093EF064093EE061B
:105290003093ED062093EC0608950C94202990910C
:1052A000E206981305C09091E30681E0961708F492
:1052B00080E008959091EA06981305C09091EB065E
:1052C00081E0961708F480E00895613009F45DC02C
:1052D00038F0623009F4AFC0633009F412C162C122
:1052E00020914C0130914D012230310569F190F44B
:1052F00021153105F9F02130310509F053C18295AE
:105300008F708F5F80931F078091AA059091AB05E6
:10531000826067C02330310539F12430310509F04E
:1053200041C18695869580931A0780911A070E943D
:10533000F03538C182958F7080931E078091AA0541
:105340009091AB0581604DC082958F708093280746
:105350008091AA059091AB0594609093AB058093E2
:10536000AA05809128071BC186958695869580930E
:105370002A078091AA059091AB0590619093AB05A7
:105380008093AA058BE090E0B9C020914C01309148
:105390004D012230310551F198F421153105B9F054
:1053A0002130310509F0FEC0982F96959695969577
:1053B000909321072091AA053091AB05286080C009
:1053C00023303105E9F02430310529F1EBC0869511
:1053D00086958695809320078091AA059091AB05CC
:1053E00084609093AB058093AA05DCC0982F9695B6
:1053F000909329072091AA053091AB05386060C0D1
:1054000086958695869580932B072091AA053091E5
:10541000AB053062C0C0881F8827881F80931B0798
:1054200080911B07882321F08091110780938101CF
:1054300080911B07B4C020914C0130914D01223066
:10544000310599F1C8F42115310529F121303105D3
:1054500009F0A8C02CE4829FC00111249093250775
:105460008091AA059091AB0580689093AB058093DD
:10547000AA0582E090E042C02330310541F124309A
:10548000310509F08FC086958695869580931C0717
:1054900080911C0784C082958F7080932207209191
:1054A000AA053091AB05206176C0982F9695969508
:1054B000905F909323072091AA053091AB0520625D
:1054C0003093AB052093AA0582958F7068C08295B2
:1054D0008F70843020F08D3018F08CE001C084E0B3
:1054E000845080932C078091AA059091AB0590641D
:1054F0009093AB058093AA058CE090E00E94D03594
:1055000051C020914C0130914D012230310579F18B
:10551000B0F42115310509F12130310509F042C0FF
:1055200082958F708F5F809326072091AA05309116
:10553000AB0531603093AB052093AA0531C0233011
:105540003105F9F02430310569F586958695869503
:1055500080931D0780911D0722C082958F708093D4
:1055600024072091AA053091AB05206414C08295D0
:105570008F70809327072091AA053091AB05326088
:105580000AC086958695869580932D072091AA0559
:105590003091AB0530683093AB052093AA058F5F3F
:1055A0000E94DF358091AA059091AB0587709927FD
:1055B000892B11F00C9433380895809114078823B7
:1055C00031F08091120781110EC083E00FC08091ED
:1055D000130781110AC02091120781E090E0211188
:1055E00006C080E0089584E001C082E090E0089564
:1055F0001F93CF93DF93182FC0917B01D0917C0133
:105600000E94DD2AE0EEF6E091838083128381E040
:105610008383D583C48317821682DF91CF911F9134
:105620000895CF93C82F0E94DD2A2091E006309183
:10563000E10682179307F1F48091E2068C131AC0F9
:1056400020917B0130917C018091E3068F5F8093F4
:10565000E3068091E4069091E506A901481B590BE9
:105660005093E7064093E6063093E5062093E40660
:10567000CF9108958C2FCF910C94F82ACF93C82FF7
:105680000E94DD2A2091E0063091E10682179307FF
:1056900069F48091E2068C1309C080917B0190919E
:1056A0007C019093E9068093E80604C01092E90615
:1056B0001092E806CF91089581E090E09093510117
:1056C0008093500185E090E00E94D03580911107D1
:1056D00081110C944037089510925101109250019D
:1056E00080E090E00E94D0358091110781110C94E8
:1056F0004037089581110AC062E00E944F29882333
:1057000029F00E946C2B80E00C94F82A08958130D7
:1057100099F030F08230F1F0833009F44DC00895F3
:1057200062E080E00E944F29882309F44DC00E9466
:105730006C2B80E00C94F82A809115070E94212799
:10574000E0911507F0E0EE0FFF1FE255FA4F808160
:1057500091812DC040912E0720913307309134075D
:1057600081E090E0BC0102C0660F771F4A95E2F726
:105770002623372340912E07232B71F020913307E6
:105780003091340702C0880F991F4A95E2F780953F
:105790009095822393230BC02091330730913407D7
:1057A00002C0880F991F4A95E2F7822B932B9093A2
:1057B000340780933307089560913307709134075D
:1057C000809115070C94DD260895813079F018F04A
:1057D000833001F1089562E080E00E944F29882320
:1057E000F9F00E946C2B80E00C94F82A8091150748
:1057F0000E94AF27E091150780E1E89FF001112496
:10580000E053FA4F80E1A0EDB6E001900D928A9549
:10581000E1F708958091150760ED76E00C94542728
:10582000089582E090E0909351018093500188E0C8
:1058300090E00E94D03580911107811102C00C9434
:1058400017370895CF93DF93C82FD62F862F0E9446
:105850002E2964E082E00E945A29882339F00E94B0
:10586000112C8D2FDF91CF910C942029D13001F193
:10587000C0F0D330A1F5C295CF70C0931507E09169
:10588000150780E1E89FF0011124E053FA4F80E111
:10589000A0EDB6E001900D928A95E1F78AE090E0E4
:1058A0001AC0C295CF70C0932E0787E090E013C056
:1058B000E0912E07F0E0C295CF70E053F94FC0831E
:1058C000E0912E07F0E0E053F94F80818F5F0E9456
:1058D000DF3581E090E0DF91CF910C94D035DF91FE
:1058E000CF91089583E090E090935101809350010F
:1058F00089E090E00E94D03580911107811102C0AB
:105900000C9417370895CF93DF93C82FD62F862F87
:105910000E942E2964E083E00E945A29882339F0EE
:105920000E94722C8D2FDF91CF910C942029DD23C2
:10593000B1F0D23001F5C295CF70C0931507E09158
:105940001507F0E0EE0FFF1FE255FA4F80819181BD
:1059500090933407809333078AE090E008C08C2F3F
:1059600066E10E94E03C80932E0786E090E0DF91A4
:10597000CF910C94D035DF91CF910895CF93DF93E1
:10598000D82FC62F623079F482E00E942E2963E07E
:1059900082E00E945A29882339F10E94112C82E06A
:1059A0000E94202921C0633071F483E00E942E29D7
:1059B00063E083E00E945A29882329F00E94722C18
:1059C00083E00E94202964E083E00E945A29882312
:1059D000E1F00E94722C8C2F0E9420296C2F8D2FB9
:1059E000DF91CF910C94222C64E082E00E945A292E
:1059F000882349F30E94112C82E00E94202962E052
:105A00008D2FDF91CF910C94832CDF91CF9108954E
:105A1000CF93DF93C82FD62F61E082E00E944F29F9
:105A200081111092E30680915001909151018130D3
:105A3000910591F058F082309105A1F00397C1F4DF
:105A40006D2F8C2FDF91CF910C94222C6D2F8C2FEA
:105A5000DF91CF910C9465296D2F8C2FDF91CF9121
:105A60000C94BE2C6D2F8C2FDF91CF910C94832C36
:105A7000DF91CF9108950F931F93CF93DF93F89405
:105A800080917B0190917C012091E4063091E506A4
:105A9000821B930B813A9F4020F08091E2060E9486
:105AA000F82A80913D018823B1F00E94993C009131
:105AB0003E0110913F012091400130914101DC01F4
:105AC000CB01801B910BA20BB30B0097A440B10537
:105AD00010F010923D017894F89420914201309199
:105AE00043014091F0068091F10690E0840F911DF2
:105AF0004091F206840F911D4091F306840F911D91
:105B00004091F406840F911D4091F506840F911D7C
:105B10004091F606840F911D4091F706840F911D68
:105B2000A3E0220F331FAA95E1F7A901445F5F4F5D
:105B30004817590730F0AC014C5F5F4F42175307CD
:105B400070F4EC01F3E0D695C795FA95E1F760E0C3
:105B50008C2F0E94082DD0934301C093420178946A
:105B6000F89420914401309145014091F8068091CC
:105B7000F90690E0840F911D4091FA06840F911D63
:105B80004091FB06840F911D4091FC06840F911DEE
:105B90004091FD06840F911D4091FE06840F911DDA
:105BA0004091FF06840F911DE3E0220F331FEA9519
:105BB000E1F7A901445F5F4F4817590730F0AC0186
:105BC0004C5F5F4F4217530770F4EC0173E0D695BA
:105BD000C7957A95E1F761E08C2F0E94082DD0934C
:105BE0004501C09344017894F89420914601309186
:105BF0004701409100078091010790E0840F911DBB
:105C000040910207840F911D40910307840F911D5D
:105C100040910407840F911D40910507840F911D49
:105C200040910607840F911D40910707840F911D35
:105C300063E0220F331F6A95E1F7A901445F5F4FCC
:105C40004817590730F0AC014C5F5F4F42175307BC
:105C500070F4EC0153E0D695C7955A95E1F762E0F0
:105C60008C2F0E94082DD0934701C0934601789451
:105C7000F8942091480130914901409108078091A2
:105C8000090790E0840F911D40910A07840F911D30
:105C900040910B07840F911D40910C07840F911DBB
:105CA00040910D07840F911D40910E07840F911DA7
:105CB00040910F07840F911D43E0220F331F4A9537
:105CC000E1F7A901445F5F4F4817590730F0AC0175
:105CD0004C5F5F4F4217530770F4EC0183E0D69599
:105CE000C7958A95E1F763E08C2F0E94082DD09329
:105CF0004901C09348017894DF91CF911F910F9192
:105D000008951F920F920FB60F9211242F933F9375
:105D10004F935F936F937F938F939F93AF93BF93B3
:105D2000EF93FF931C9B0E945237FF91EF91BF911D
:105D3000AF919F918F917F916F915F914F913F9123
:105D40002F910F900FBE0F901F90189580915201C8
:105D50008F5F809352019091520180915401981766
:105D600010F0109252019091520180915601890FCA
:105D70008F7380935301089580E090E041E050E0FC
:105D80006FEF2091AA053091AB05FA01082E02C0F1
:105D9000EE0FFF1F0A94E2F72E233F23232B81F0FF
:105DA00030915301FC01E25EF84F2081FC0170E16B
:105DB000379FE00DF11D1124E655FE4F20830BC0E7
:105DC00020915301FC0130E1239FE00DF11D1124CE
:105DD000E655FE4F608301968031910591F68091E2
:105DE0005401803428F4809154018F5F80935401D2
:105DF0008091530190E001968F739927809353010E
:105E000008954FEF90915401981728F520E030E065
:105E100090915301F90150E1959FE00DF11D11247E
:105E2000E655FE4F40832F5F3F4F2031310581F70C
:105E300090915401903428F4909154019F5F909375
:105E400054012091530130E02F5F3F4F2F733327D0
:105E500020935301D7CF0895809153018093560129
:105E60001092540181E080931007089580915301AE
:105E7000809355018091550190915401282F30E075
:105E8000291B310937FD805C891B809356011092D4
:105E900010070895CF92DF92EF92FF920F931F9316
:105EA000CF938130B9F030F0823081F1833009F442
:105EB0007DC0D4C081E08093120765E080E00E943D
:105EC0004F29882309F4CCC00E945C2B80E00E94FB
:105ED000F82AC6C020914C0130914D012130310586
:105EE00091F038F02230310509F0BAC080931407E0
:105EF000B7C080911107882319F00E944037B0C0C5
:105F00000E941737ADC00E945237AAC080914C0141
:105F100090914D01019791F462E082E00E944F2937
:105F2000882329F08091E3060E94EC379BC081E032
:105F30000E94EC3782E00E94F82A94C0C1E0C0932E
:105F400013070E94993C20913D01223021F50091D8
:105F50003E0110913F0120914001309141016B01C0
:105F60007C01C01AD10AE20AF30AC0922F07D0922C
:105F70003007E0923107F092320700912F0710911D
:105F80003007209131073091320701151105244067
:105F9000310518F065C0C0933D0160933E017093D8
:105FA0003F0180934001909341015CC080914C017E
:105FB00090914D01019731F580914E0190914F01E3
:105FC0008130910591F040F0029709F049C010929C
:105FD0004F0110924E0111C082E090E090934F016A
:105FE00080934E0184E090E00AC040E054E06FEFFF
:105FF00070E08AEA91E00E94D83D83E090E00E9440
:10600000D0352EC080914C0190914D01892B41F5E6
:1060100080911007811117C080914E0190914F011E
:10602000892B41F440E054E06FEF70E08AEA91E0A0
:106030000E94D83D81E090E090934F0180934E0103
:106040000E942C2F0DC082E090E090934F0180932E
:106050004E01109252010E94362F02C0823011F080
:1060600010923D010E94DD2A90934D0180934C01D6
:10607000CF911F910F91FF90EF90DF90CF900895F7
:106080001F93CF93DF93CDB7DEB72A970FB6F8945F
:10609000DEBF0FBECDBF182F8AE0E0EEF6E0DE01D6
:1060A000119601900D928A95E1F7812F0E94112B94
:1060B00062E0812F0E944F298823D1F08091E6066B
:1060C0009091E706039750F48AE0FE013196A0EE26
:1060D000B6E001900D928A95E1F747C08091E606FF
:1060E0009091E706813A9F4018F0812F0E94F82A8C
:1060F000809150019091510181309105F1F088F02B
:106100008230910531F1039781F5812F2A960FB6E0
:10611000F894DEBF0FBECDBFDF91CF911F910C94DD
:10612000E52B812F2A960FB6F894DEBF0FBECDBFA8
:10613000DF91CF911F910C944A2F812F2A960FB691
:10614000F894DEBF0FBECDBFDF91CF911F910C94AD
:106150007A2B812F2A960FB6F894DEBF0FBECDBFE3
:10616000DF91CF911F910C94872B2A960FB6F8944C
:10617000DEBF0FBECDBFDF91CF911F910895CF93AA
:106180008091540130911F0760911F0720911F07D4
:10619000369590E0830F911D70E00E94003D269F90
:1061A000802D1124813420F090911F07891BFACF94
:1061B000C0915401C81B90915401891768F48093D1
:1061C00054019091540160915301691B860F87FD22
:1061D000805C8093530109C090915401981740F45A
:1061E0000E94012F80915401C80FC093520102C038
:1061F0001092520182E090E090934F0180934E0103
:10620000CF910C94362F0F931F93CF93C82F0E94DA
:106210003E2BC13049F028F0C23049F0C330F1F1D3
:1062200049C01092120746C01092140743C0109242
:10623000130780913D018823E9F10E94993C009168
